{
  "contractName": "Loot",
  "abi": [
    {
      "inputs": [
        {
          "internalType": "string",
          "name": "name",
          "type": "string"
        },
        {
          "internalType": "string",
          "name": "symbol",
          "type": "string"
        },
        {
          "internalType": "uint256",
          "name": "mintPrice",
          "type": "uint256"
        },
        {
          "internalType": "uint256",
          "name": "max",
          "type": "uint256"
        },
        {
          "internalType": "address",
          "name": "admin",
          "type": "address"
        },
        {
          "internalType": "address",
          "name": "admin2",
          "type": "address"
        }
      ],
      "stateMutability": "nonpayable",
      "type": "constructor"
    },
    {
      "anonymous": false,
      "inputs": [
        {
          "indexed": true,
          "internalType": "address",
          "name": "owner",
          "type": "address"
        },
        {
          "indexed": true,
          "internalType": "address",
          "name": "approved",
          "type": "address"
        },
        {
          "indexed": true,
          "internalType": "uint256",
          "name": "tokenId",
          "type": "uint256"
        }
      ],
      "name": "Approval",
      "type": "event"
    },
    {
      "anonymous": false,
      "inputs": [
        {
          "indexed": true,
          "internalType": "address",
          "name": "owner",
          "type": "address"
        },
        {
          "indexed": true,
          "internalType": "address",
          "name": "operator",
          "type": "address"
        },
        {
          "indexed": false,
          "internalType": "bool",
          "name": "approved",
          "type": "bool"
        }
      ],
      "name": "ApprovalForAll",
      "type": "event"
    },
    {
      "anonymous": false,
      "inputs": [
        {
          "indexed": true,
          "internalType": "address",
          "name": "previousOwner",
          "type": "address"
        },
        {
          "indexed": true,
          "internalType": "address",
          "name": "newOwner",
          "type": "address"
        }
      ],
      "name": "OwnershipTransferred",
      "type": "event"
    },
    {
      "anonymous": false,
      "inputs": [
        {
          "indexed": true,
          "internalType": "bytes32",
          "name": "role",
          "type": "bytes32"
        },
        {
          "indexed": true,
          "internalType": "bytes32",
          "name": "previousAdminRole",
          "type": "bytes32"
        },
        {
          "indexed": true,
          "internalType": "bytes32",
          "name": "newAdminRole",
          "type": "bytes32"
        }
      ],
      "name": "RoleAdminChanged",
      "type": "event"
    },
    {
      "anonymous": false,
      "inputs": [
        {
          "indexed": true,
          "internalType": "bytes32",
          "name": "role",
          "type": "bytes32"
        },
        {
          "indexed": true,
          "internalType": "address",
          "name": "account",
          "type": "address"
        },
        {
          "indexed": true,
          "internalType": "address",
          "name": "sender",
          "type": "address"
        }
      ],
      "name": "RoleGranted",
      "type": "event"
    },
    {
      "anonymous": false,
      "inputs": [
        {
          "indexed": true,
          "internalType": "bytes32",
          "name": "role",
          "type": "bytes32"
        },
        {
          "indexed": true,
          "internalType": "address",
          "name": "account",
          "type": "address"
        },
        {
          "indexed": true,
          "internalType": "address",
          "name": "sender",
          "type": "address"
        }
      ],
      "name": "RoleRevoked",
      "type": "event"
    },
    {
      "anonymous": false,
      "inputs": [
        {
          "indexed": true,
          "internalType": "address",
          "name": "from",
          "type": "address"
        },
        {
          "indexed": true,
          "internalType": "address",
          "name": "to",
          "type": "address"
        },
        {
          "indexed": true,
          "internalType": "uint256",
          "name": "tokenId",
          "type": "uint256"
        }
      ],
      "name": "Transfer",
      "type": "event"
    },
    {
      "inputs": [],
      "name": "DEFAULT_ADMIN_ROLE",
      "outputs": [
        {
          "internalType": "bytes32",
          "name": "",
          "type": "bytes32"
        }
      ],
      "stateMutability": "view",
      "type": "function",
      "constant": true
    },
    {
      "inputs": [],
      "name": "_tokenIdTracker",
      "outputs": [
        {
          "internalType": "uint256",
          "name": "_value",
          "type": "uint256"
        }
      ],
      "stateMutability": "view",
      "type": "function",
      "constant": true
    },
    {
      "inputs": [
        {
          "internalType": "address",
          "name": "to",
          "type": "address"
        },
        {
          "internalType": "uint256",
          "name": "tokenId",
          "type": "uint256"
        }
      ],
      "name": "approve",
      "outputs": [],
      "stateMutability": "nonpayable",
      "type": "function"
    },
    {
      "inputs": [
        {
          "internalType": "address",
          "name": "owner",
          "type": "address"
        }
      ],
      "name": "balanceOf",
      "outputs": [
        {
          "internalType": "uint256",
          "name": "",
          "type": "uint256"
        }
      ],
      "stateMutability": "view",
      "type": "function",
      "constant": true
    },
    {
      "inputs": [
        {
          "internalType": "uint256",
          "name": "",
          "type": "uint256"
        }
      ],
      "name": "creator",
      "outputs": [
        {
          "internalType": "address",
          "name": "",
          "type": "address"
        }
      ],
      "stateMutability": "view",
      "type": "function",
      "constant": true
    },
    {
      "inputs": [
        {
          "internalType": "uint256",
          "name": "tokenId",
          "type": "uint256"
        }
      ],
      "name": "getApproved",
      "outputs": [
        {
          "internalType": "address",
          "name": "",
          "type": "address"
        }
      ],
      "stateMutability": "view",
      "type": "function",
      "constant": true
    },
    {
      "inputs": [
        {
          "internalType": "bytes32",
          "name": "role",
          "type": "bytes32"
        }
      ],
      "name": "getRoleAdmin",
      "outputs": [
        {
          "internalType": "bytes32",
          "name": "",
          "type": "bytes32"
        }
      ],
      "stateMutability": "view",
      "type": "function",
      "constant": true
    },
    {
      "inputs": [
        {
          "internalType": "bytes32",
          "name": "role",
          "type": "bytes32"
        },
        {
          "internalType": "uint256",
          "name": "index",
          "type": "uint256"
        }
      ],
      "name": "getRoleMember",
      "outputs": [
        {
          "internalType": "address",
          "name": "",
          "type": "address"
        }
      ],
      "stateMutability": "view",
      "type": "function",
      "constant": true
    },
    {
      "inputs": [
        {
          "internalType": "bytes32",
          "name": "role",
          "type": "bytes32"
        }
      ],
      "name": "getRoleMemberCount",
      "outputs": [
        {
          "internalType": "uint256",
          "name": "",
          "type": "uint256"
        }
      ],
      "stateMutability": "view",
      "type": "function",
      "constant": true
    },
    {
      "inputs": [
        {
          "internalType": "bytes32",
          "name": "role",
          "type": "bytes32"
        },
        {
          "internalType": "address",
          "name": "account",
          "type": "address"
        }
      ],
      "name": "hasRole",
      "outputs": [
        {
          "internalType": "bool",
          "name": "",
          "type": "bool"
        }
      ],
      "stateMutability": "view",
      "type": "function",
      "constant": true
    },
    {
      "inputs": [
        {
          "internalType": "address",
          "name": "owner",
          "type": "address"
        },
        {
          "internalType": "address",
          "name": "operator",
          "type": "address"
        }
      ],
      "name": "isApprovedForAll",
      "outputs": [
        {
          "internalType": "bool",
          "name": "",
          "type": "bool"
        }
      ],
      "stateMutability": "view",
      "type": "function",
      "constant": true
    },
    {
      "inputs": [],
      "name": "name",
      "outputs": [
        {
          "internalType": "string",
          "name": "",
          "type": "string"
        }
      ],
      "stateMutability": "view",
      "type": "function",
      "constant": true
    },
    {
      "inputs": [],
      "name": "owner",
      "outputs": [
        {
          "internalType": "address",
          "name": "",
          "type": "address"
        }
      ],
      "stateMutability": "view",
      "type": "function",
      "constant": true
    },
    {
      "inputs": [
        {
          "internalType": "uint256",
          "name": "tokenId",
          "type": "uint256"
        }
      ],
      "name": "ownerOf",
      "outputs": [
        {
          "internalType": "address",
          "name": "",
          "type": "address"
        }
      ],
      "stateMutability": "view",
      "type": "function",
      "constant": true
    },
    {
      "inputs": [],
      "name": "renounceOwnership",
      "outputs": [],
      "stateMutability": "nonpayable",
      "type": "function"
    },
    {
      "inputs": [
        {
          "internalType": "bytes32",
          "name": "role",
          "type": "bytes32"
        },
        {
          "internalType": "address",
          "name": "account",
          "type": "address"
        }
      ],
      "name": "renounceRole",
      "outputs": [],
      "stateMutability": "nonpayable",
      "type": "function"
    },
    {
      "inputs": [
        {
          "internalType": "address",
          "name": "from",
          "type": "address"
        },
        {
          "internalType": "address",
          "name": "to",
          "type": "address"
        },
        {
          "internalType": "uint256",
          "name": "tokenId",
          "type": "uint256"
        }
      ],
      "name": "safeTransferFrom",
      "outputs": [],
      "stateMutability": "nonpayable",
      "type": "function"
    },
    {
      "inputs": [
        {
          "internalType": "address",
          "name": "from",
          "type": "address"
        },
        {
          "internalType": "address",
          "name": "to",
          "type": "address"
        },
        {
          "internalType": "uint256",
          "name": "tokenId",
          "type": "uint256"
        },
        {
          "internalType": "bytes",
          "name": "_data",
          "type": "bytes"
        }
      ],
      "name": "safeTransferFrom",
      "outputs": [],
      "stateMutability": "nonpayable",
      "type": "function"
    },
    {
      "inputs": [],
      "name": "saleIsActive",
      "outputs": [
        {
          "internalType": "bool",
          "name": "",
          "type": "bool"
        }
      ],
      "stateMutability": "view",
      "type": "function",
      "constant": true
    },
    {
      "inputs": [
        {
          "internalType": "address",
          "name": "operator",
          "type": "address"
        },
        {
          "internalType": "bool",
          "name": "approved",
          "type": "bool"
        }
      ],
      "name": "setApprovalForAll",
      "outputs": [],
      "stateMutability": "nonpayable",
      "type": "function"
    },
    {
      "inputs": [],
      "name": "symbol",
      "outputs": [
        {
          "internalType": "string",
          "name": "",
          "type": "string"
        }
      ],
      "stateMutability": "view",
      "type": "function",
      "constant": true
    },
    {
      "inputs": [
        {
          "internalType": "uint256",
          "name": "index",
          "type": "uint256"
        }
      ],
      "name": "tokenByIndex",
      "outputs": [
        {
          "internalType": "uint256",
          "name": "",
          "type": "uint256"
        }
      ],
      "stateMutability": "view",
      "type": "function",
      "constant": true
    },
    {
      "inputs": [
        {
          "internalType": "address",
          "name": "owner",
          "type": "address"
        },
        {
          "internalType": "uint256",
          "name": "index",
          "type": "uint256"
        }
      ],
      "name": "tokenOfOwnerByIndex",
      "outputs": [
        {
          "internalType": "uint256",
          "name": "",
          "type": "uint256"
        }
      ],
      "stateMutability": "view",
      "type": "function",
      "constant": true
    },
    {
      "inputs": [],
      "name": "totalSupply",
      "outputs": [
        {
          "internalType": "uint256",
          "name": "",
          "type": "uint256"
        }
      ],
      "stateMutability": "view",
      "type": "function",
      "constant": true
    },
    {
      "inputs": [
        {
          "internalType": "address",
          "name": "from",
          "type": "address"
        },
        {
          "internalType": "address",
          "name": "to",
          "type": "address"
        },
        {
          "internalType": "uint256",
          "name": "tokenId",
          "type": "uint256"
        }
      ],
      "name": "transferFrom",
      "outputs": [],
      "stateMutability": "nonpayable",
      "type": "function"
    },
    {
      "inputs": [
        {
          "internalType": "address",
          "name": "newOwner",
          "type": "address"
        }
      ],
      "name": "transferOwnership",
      "outputs": [],
      "stateMutability": "nonpayable",
      "type": "function"
    },
    {
      "inputs": [],
      "name": "contractURI",
      "outputs": [
        {
          "internalType": "string",
          "name": "",
          "type": "string"
        }
      ],
      "stateMutability": "pure",
      "type": "function",
      "constant": true
    },
    {
      "inputs": [
        {
          "internalType": "string",
          "name": "baseURI",
          "type": "string"
        }
      ],
      "name": "setBaseURI",
      "outputs": [],
      "stateMutability": "nonpayable",
      "type": "function"
    },
    {
      "inputs": [
        {
          "internalType": "uint256",
          "name": "tokenId",
          "type": "uint256"
        },
        {
          "internalType": "string",
          "name": "_tokenURI",
          "type": "string"
        }
      ],
      "name": "setTokenURI",
      "outputs": [],
      "stateMutability": "nonpayable",
      "type": "function"
    },
    {
      "inputs": [
        {
          "internalType": "uint256",
          "name": "mintPrice",
          "type": "uint256"
        }
      ],
      "name": "setPrice",
      "outputs": [],
      "stateMutability": "nonpayable",
      "type": "function"
    },
    {
      "inputs": [
        {
          "internalType": "uint256",
          "name": "maxSupply",
          "type": "uint256"
        }
      ],
      "name": "setMax",
      "outputs": [],
      "stateMutability": "nonpayable",
      "type": "function"
    },
    {
      "inputs": [],
      "name": "price",
      "outputs": [
        {
          "internalType": "uint256",
          "name": "",
          "type": "uint256"
        }
      ],
      "stateMutability": "view",
      "type": "function",
      "constant": true
    },
    {
      "inputs": [],
      "name": "mint",
      "outputs": [],
      "stateMutability": "payable",
      "type": "function",
      "payable": true
    },
    {
      "inputs": [
        {
          "internalType": "uint256",
          "name": "_amount",
          "type": "uint256"
        }
      ],
      "name": "mineReserves",
      "outputs": [],
      "stateMutability": "nonpayable",
      "type": "function"
    },
    {
      "inputs": [],
      "name": "flipSaleState",
      "outputs": [],
      "stateMutability": "nonpayable",
      "type": "function"
    },
    {
      "inputs": [
        {
          "internalType": "uint256",
          "name": "tokenId",
          "type": "uint256"
        }
      ],
      "name": "punkCreator",
      "outputs": [
        {
          "internalType": "address",
          "name": "",
          "type": "address"
        }
      ],
      "stateMutability": "view",
      "type": "function",
      "constant": true
    },
    {
      "inputs": [
        {
          "internalType": "uint256",
          "name": "tokenId",
          "type": "uint256"
        }
      ],
      "name": "tokenURI",
      "outputs": [
        {
          "internalType": "string",
          "name": "",
          "type": "string"
        }
      ],
      "stateMutability": "view",
      "type": "function",
      "constant": true
    },
    {
      "inputs": [
        {
          "internalType": "bytes4",
          "name": "interfaceId",
          "type": "bytes4"
        }
      ],
      "name": "supportsInterface",
      "outputs": [
        {
          "internalType": "bool",
          "name": "",
          "type": "bool"
        }
      ],
      "stateMutability": "view",
      "type": "function",
      "constant": true
    },
    {
      "inputs": [
        {
          "internalType": "bytes32",
          "name": "role",
          "type": "bytes32"
        },
        {
          "internalType": "address",
          "name": "account",
          "type": "address"
        }
      ],
      "name": "revokeRole",
      "outputs": [],
      "stateMutability": "nonpayable",
      "type": "function"
    },
    {
      "inputs": [
        {
          "internalType": "bytes32",
          "name": "role",
          "type": "bytes32"
        },
        {
          "internalType": "address",
          "name": "account",
          "type": "address"
        }
      ],
      "name": "grantRole",
      "outputs": [],
      "stateMutability": "nonpayable",
      "type": "function"
    }
  ],
  "bytecode": "0x60e060405260296080818152906200336560a03980516200002991600f91602090910190620002b6565b506014805460ff191690553480156200004157600080fd5b506040516200338e3803806200338e833981016040819052620000649162000430565b8551869086906200007d906002906020850190620002b6565b50805162000093906003906020840190620002b6565b505050620000b0620000aa620000fb60201b60201c565b620000ff565b60108490556011839055601280546001600160a01b0319166001600160a01b038416179055620000e260008362000151565b620000ef60008262000151565b50505050505062000524565b3390565b600d80546001600160a01b038381166001600160a01b0319831681179093556040519116919082907f8be0079c531659141344cd1fd0a4f28419497f9722a3daafe3b4186f6b6457e090600090a35050565b6200016882826200019460201b620013891760201c565b60008281526001602090815260409091206200018f91839062001393620001a4821b17901c565b505050565b620001a08282620001c4565b5050565b6000620001bb836001600160a01b03841662000264565b90505b92915050565b6000828152602081815260408083206001600160a01b038516845290915290205460ff16620001a0576000828152602081815260408083206001600160a01b03851684529091529020805460ff19166001179055620002203390565b6001600160a01b0316816001600160a01b0316837f2f8788117e7eff1d82e926ec794901d17c78024a50270940304540a733656f0d60405160405180910390a45050565b6000818152600183016020526040812054620002ad57508154600181810184556000848152602080822090930184905584548482528286019093526040902091909155620001be565b506000620001be565b828054620002c490620004d1565b90600052602060002090601f016020900481019282620002e8576000855562000333565b82601f106200030357805160ff191683800117855562000333565b8280016001018555821562000333579182015b828111156200033357825182559160200191906001019062000316565b506200034192915062000345565b5090565b5b8082111562000341576000815560010162000346565b80516001600160a01b03811681146200037457600080fd5b919050565b600082601f8301126200038b57600080fd5b81516001600160401b0380821115620003a857620003a86200050e565b604051601f8301601f19908116603f01168101908282118183101715620003d357620003d36200050e565b81604052838152602092508683858801011115620003f057600080fd5b600091505b83821015620004145785820183015181830184015290820190620003f5565b83821115620004265760008385830101525b9695505050505050565b60008060008060008060c087890312156200044a57600080fd5b86516001600160401b03808211156200046257600080fd5b620004708a838b0162000379565b975060208901519150808211156200048757600080fd5b506200049689828a0162000379565b9550506040870151935060608701519250620004b5608088016200035c565b9150620004c560a088016200035c565b90509295509295509295565b600181811c90821680620004e657607f821691505b602082108114156200050857634e487b7160e01b600052602260045260246000fd5b50919050565b634e487b7160e01b600052604160045260246000fd5b612e3180620005346000396000f3fe6080604052600436106101db5760003560e01c80636352211e116100fe5780636352211e1461049957806370a08231146104b9578063715018a6146104d95780638da5cb5b146104ee5780639010d07c1461050357806391b7f5ed1461052357806391d148541461054357806395d89b411461056357806398bcede914610578578063a035b1fe1461058f578063a217fddf146105a4578063a22cb465146105b9578063b88d4fde146105d9578063c87b56dd146105f9578063ca15c87314610619578063d547741f14610639578063e8a3d48514610659578063e985e9c514610698578063eb8d2444146106b8578063f2fde38b146106d257600080fd5b806301ffc9a7146101e057806306fdde0314610215578063081812fc14610237578063095ea7b31461026f5780631249c58b14610291578063162094c41461029957806318160ddd146102b95780631fe9eabc146102d857806323b872dd146102f8578063248a9ca3146103185780632f2ff15d146103385780632f745c591461035857806334918dfd1461037857806336568abe1461038d57806342842e0e146103ad578063437bab41146103cd578063469e5455146104035780634f6ccce714610423578063510b51581461044357806355f804b314610479575b600080fd5b3480156101ec57600080fd5b506102006101fb366004612966565b6106f2565b60405190151581526020015b60405180910390f35b34801561022157600080fd5b5061022a610703565b60405161020c9190612b21565b34801561024357600080fd5b50610257610252366004612908565b610795565b6040516001600160a01b03909116815260200161020c565b34801561027b57600080fd5b5061028f61028a3660046128de565b610822565b005b61028f610933565b3480156102a557600080fd5b5061028f6102b43660046129d4565b610aac565b3480156102c557600080fd5b50600a545b60405190815260200161020c565b3480156102e457600080fd5b5061028f6102f3366004612908565b610b49565b34801561030457600080fd5b5061028f6103133660046127eb565b610ba4565b34801561032457600080fd5b506102ca610333366004612908565b610bd5565b34801561034457600080fd5b5061028f610353366004612921565b610bea565b34801561036457600080fd5b506102ca6103733660046128de565b610c36565b34801561038457600080fd5b5061028f610ccc565b34801561039957600080fd5b5061028f6103a8366004612921565b610d69565b3480156103b957600080fd5b5061028f6103c83660046127eb565b610d8b565b3480156103d957600080fd5b506102576103e8366004612908565b6000908152601360205260409020546001600160a01b031690565b34801561040f57600080fd5b5061028f61041e366004612908565b610da6565b34801561042f57600080fd5b506102ca61043e366004612908565b610e28565b34801561044f57600080fd5b5061025761045e366004612908565b6013602052600090815260409020546001600160a01b031681565b34801561048557600080fd5b5061028f6104943660046129a0565b610ebb565b3480156104a557600080fd5b506102576104b4366004612908565b610f5c565b3480156104c557600080fd5b506102ca6104d436600461279d565b610fd3565b3480156104e557600080fd5b5061028f61105a565b3480156104fa57600080fd5b50610257611093565b34801561050f57600080fd5b5061025761051e366004612944565b6110a2565b34801561052f57600080fd5b5061028f61053e366004612908565b6110c1565b34801561054f57600080fd5b5061020061055e366004612921565b61111c565b34801561056f57600080fd5b5061022a611145565b34801561058457600080fd5b50600e546102ca9081565b34801561059b57600080fd5b506010546102ca565b3480156105b057600080fd5b506102ca600081565b3480156105c557600080fd5b5061028f6105d43660046128a2565b611154565b3480156105e557600080fd5b5061028f6105f4366004612827565b611215565b34801561060557600080fd5b5061022a610614366004612908565b61124d565b34801561062557600080fd5b506102ca610634366004612908565b611258565b34801561064557600080fd5b5061028f610654366004612921565b61126f565b34801561066557600080fd5b5060408051808201909152601681527568747470733a2f2f62696e616e63656c6f6f742e696f60501b602082015261022a565b3480156106a457600080fd5b506102006106b33660046127b8565b6112bb565b3480156106c457600080fd5b506014546102009060ff1681565b3480156106de57600080fd5b5061028f6106ed36600461279d565b6112e9565b60006106fd826113a8565b92915050565b60606002805461071290612ced565b80601f016020809104026020016040519081016040528092919081815260200182805461073e90612ced565b801561078b5780601f106107605761010080835404028352916020019161078b565b820191906000526020600020905b81548152906001019060200180831161076e57829003601f168201915b5050505050905090565b60006107a0826113cd565b6108065760405162461bcd60e51b815260206004820152602c60248201527f4552433732313a20617070726f76656420717565727920666f72206e6f6e657860448201526b34b9ba32b73a103a37b5b2b760a11b60648201526084015b60405180910390fd5b506000908152600660205260409020546001600160a01b031690565b600061082d82610f5c565b9050806001600160a01b0316836001600160a01b0316141561089b5760405162461bcd60e51b815260206004820152602160248201527f4552433732313a20617070726f76616c20746f2063757272656e74206f776e656044820152603960f91b60648201526084016107fd565b336001600160a01b03821614806108b757506108b781336112bb565b6109245760405162461bcd60e51b815260206004820152603860248201527f4552433732313a20617070726f76652063616c6c6572206973206e6f74206f776044820152771b995c881b9bdc88185c1c1c9bdd995908199bdc88185b1b60421b60648201526084016107fd565b61092e83836113ea565b505050565b60145460ff166109835760405162461bcd60e51b815260206004820152601b60248201527a14d85b19481b5d5cdd081899481858dd1a5d99481d1bc81b5a5b9d602a1b60448201526064016107fd565b60105434146109de5760405162461bcd60e51b815260206004820152602160248201527f424e4250756e6b733a206d7573742073656e6420636f727265637420707269636044820152606560f81b60648201526084016107fd565b601154600e5410610a415760405162461bcd60e51b815260206004820152602760248201527f424e4250756e6b733a20616c6c20424e4250756e6b732068617665206265656e604482015266081b5a5b9d195960ca1b60648201526084016107fd565b610a5333610a4e600e5490565b611458565b3360136000610a61600e5490565b815260200190815260200160002060006101000a8154816001600160a01b0302191690836001600160a01b03160217905550610aa1600e80546001019055565b610aaa34611596565b565b33610ab5611093565b6001600160a01b031614610adb5760405162461bcd60e51b81526004016107fd90612b86565b610ae660003361111c565b610b3b5760405162461bcd60e51b81526020600482015260326024820152600080516020612ddc8339815191526044820152716f206368616e676520746f6b656e2055524960701b60648201526084016107fd565b610b4582826115d0565b5050565b33610b52611093565b6001600160a01b031614610b785760405162461bcd60e51b81526004016107fd90612b86565b610b8360003361111c565b610b9f5760405162461bcd60e51b81526004016107fd90612c0c565b601155565b610bae338261165b565b610bca5760405162461bcd60e51b81526004016107fd90612bbb565b61092e838383611725565b60009081526020819052604090206001015490565b610bf382610bd5565b610bfd81336118d0565b33610c06611093565b6001600160a01b031614610c2c5760405162461bcd60e51b81526004016107fd90612b86565b61092e8383611934565b6000610c4183610fd3565b8210610ca35760405162461bcd60e51b815260206004820152602b60248201527f455243373231456e756d657261626c653a206f776e657220696e646578206f7560448201526a74206f6620626f756e647360a81b60648201526084016107fd565b506001600160a01b03919091166000908152600860209081526040808320938352929052205490565b33610cd5611093565b6001600160a01b031614610cfb5760405162461bcd60e51b81526004016107fd90612b86565b610d0660003361111c565b610d555760405162461bcd60e51b815260206004820152602c6024820152600080516020612ddc83398151915260448201526b6f20666c69702073616c657360a01b60648201526084016107fd565b6014805460ff19811660ff90911615179055565b610d738282611956565b600082815260016020526040902061092e90826119d0565b61092e83838360405180602001604052806000815250611215565b610db160003361111c565b610e035760405162461bcd60e51b815260206004820152602f6024820152600080516020612ddc83398151915260448201526e6f206d696e6520726573657276657360881b60648201526084016107fd565b60005b81811015610b4557610e166119e5565b80610e2081612d28565b915050610e06565b6000610e33600a5490565b8210610e965760405162461bcd60e51b815260206004820152602c60248201527f455243373231456e756d657261626c653a20676c6f62616c20696e646578206f60448201526b7574206f6620626f756e647360a01b60648201526084016107fd565b600a8281548110610ea957610ea9612d99565b90600052602060002001549050919050565b33610ec4611093565b6001600160a01b031614610eea5760405162461bcd60e51b81526004016107fd90612b86565b610ef560003361111c565b610f495760405162461bcd60e51b81526020600482015260316024820152600080516020612ddc8339815191526044820152706f206368616e676520626173652055524960781b60648201526084016107fd565b8051610b4590600f906020840190612653565b6000818152600460205260408120546001600160a01b0316806106fd5760405162461bcd60e51b815260206004820152602960248201527f4552433732313a206f776e657220717565727920666f72206e6f6e657869737460448201526832b73a103a37b5b2b760b91b60648201526084016107fd565b60006001600160a01b03821661103e5760405162461bcd60e51b815260206004820152602a60248201527f4552433732313a2062616c616e636520717565727920666f7220746865207a65604482015269726f206164647265737360b01b60648201526084016107fd565b506001600160a01b031660009081526005602052604090205490565b33611063611093565b6001600160a01b0316146110895760405162461bcd60e51b81526004016107fd90612b86565b610aaa6000611a05565b600d546001600160a01b031690565b60008281526001602052604081206110ba9083611a57565b9392505050565b336110ca611093565b6001600160a01b0316146110f05760405162461bcd60e51b81526004016107fd90612b86565b6110fb60003361111c565b6111175760405162461bcd60e51b81526004016107fd90612c0c565b601055565b6000918252602082815260408084206001600160a01b0393909316845291905290205460ff1690565b60606003805461071290612ced565b6001600160a01b0382163314156111a95760405162461bcd60e51b815260206004820152601960248201527822a9219b99189d1030b8383937bb32903a379031b0b63632b960391b60448201526064016107fd565b3360008181526007602090815260408083206001600160a01b03871680855290835292819020805460ff191686151590811790915590519081529192917f17307eab39ab6107e8899845ad3d59bd9653f200f220920489ca2b5937696c31910160405180910390a35050565b61121f338361165b565b61123b5760405162461bcd60e51b81526004016107fd90612bbb565b61124784848484611a63565b50505050565b60606106fd82611a96565b60008181526001602052604081206106fd90611bf8565b61127882610bd5565b61128281336118d0565b3361128b611093565b6001600160a01b0316146112b15760405162461bcd60e51b81526004016107fd90612b86565b61092e8383611c02565b6001600160a01b03918216600090815260076020908152604080832093909416825291909152205460ff1690565b336112f2611093565b6001600160a01b0316146113185760405162461bcd60e51b81526004016107fd90612b86565b6001600160a01b03811661137d5760405162461bcd60e51b815260206004820152602660248201527f4f776e61626c653a206e6577206f776e657220697320746865207a65726f206160448201526564647265737360d01b60648201526084016107fd565b61138681611a05565b50565b610b458282611c0c565b60006110ba836001600160a01b038416611c90565b60006001600160e01b0319821663780e9d6360e01b14806106fd57506106fd82611cdf565b6000908152600460205260409020546001600160a01b0316151590565b600081815260066020526040902080546001600160a01b0319166001600160a01b038416908117909155819061141f82610f5c565b6001600160a01b03167f8c5be1e5ebec7d5bd14f71427d1e84f3dd0314c0f7b2291e5b200ac8c7c3b92560405160405180910390a45050565b6001600160a01b0382166114ae5760405162461bcd60e51b815260206004820181905260248201527f4552433732313a206d696e7420746f20746865207a65726f206164647265737360448201526064016107fd565b6114b7816113cd565b156115035760405162461bcd60e51b815260206004820152601c60248201527b115490cdcc8c4e881d1bdad95b88185b1c9958591e481b5a5b9d195960221b60448201526064016107fd565b61150f60008383611d1f565b6001600160a01b0382166000908152600560205260408120805460019290611538908490612c48565b909155505060008181526004602052604080822080546001600160a01b0319166001600160a01b03861690811790915590518392907fddf252ad1be2c89b69c2b068fc378daa952ba7f163c4a11628f55a4df523b3ef908290a45050565b6012546040516001600160a01b039091169082156108fc029083906000818181858888f19350505050158015610b45573d6000803e3d6000fd5b6115d9826113cd565b61163c5760405162461bcd60e51b815260206004820152602e60248201527f45524337323155524953746f726167653a2055524920736574206f66206e6f6e60448201526d32bc34b9ba32b73a103a37b5b2b760911b60648201526084016107fd565b6000828152600c60209081526040909120825161092e92840190612653565b6000611666826113cd565b6116c75760405162461bcd60e51b815260206004820152602c60248201527f4552433732313a206f70657261746f7220717565727920666f72206e6f6e657860448201526b34b9ba32b73a103a37b5b2b760a11b60648201526084016107fd565b60006116d283610f5c565b9050806001600160a01b0316846001600160a01b0316148061170d5750836001600160a01b031661170284610795565b6001600160a01b0316145b8061171d575061171d81856112bb565b949350505050565b826001600160a01b031661173882610f5c565b6001600160a01b0316146117a05760405162461bcd60e51b815260206004820152602960248201527f4552433732313a207472616e73666572206f6620746f6b656e2074686174206960448201526839903737ba1037bbb760b91b60648201526084016107fd565b6001600160a01b0382166118025760405162461bcd60e51b8152602060048201526024808201527f4552433732313a207472616e7366657220746f20746865207a65726f206164646044820152637265737360e01b60648201526084016107fd565b61180d838383611d1f565b6118186000826113ea565b6001600160a01b0383166000908152600560205260408120805460019290611841908490612c93565b90915550506001600160a01b038216600090815260056020526040812080546001929061186f908490612c48565b909155505060008181526004602052604080822080546001600160a01b0319166001600160a01b0386811691821790925591518493918716917fddf252ad1be2c89b69c2b068fc378daa952ba7f163c4a11628f55a4df523b3ef91a4505050565b6118da828261111c565b610b45576118f2816001600160a01b03166014611d2a565b6118fd836020611d2a565b60405160200161190e929190612a75565b60408051601f198184030181529082905262461bcd60e51b82526107fd91600401612b21565b61193e8282611ec5565b600082815260016020526040902061092e9082611393565b6001600160a01b03811633146119c65760405162461bcd60e51b815260206004820152602f60248201527f416363657373436f6e74726f6c3a2063616e206f6e6c792072656e6f756e636560448201526e103937b632b9903337b91039b2b63360891b60648201526084016107fd565b610b458282611ee2565b60006110ba836001600160a01b038416611f47565b6119f7336119f2600e5490565b61203a565b610aaa600e80546001019055565b600d80546001600160a01b038381166001600160a01b0319831681179093556040519116919082907f8be0079c531659141344cd1fd0a4f28419497f9722a3daafe3b4186f6b6457e090600090a35050565b60006110ba8383612054565b611a6e848484611725565b611a7a8484848461207e565b6112475760405162461bcd60e51b81526004016107fd90612b34565b6060611aa1826113cd565b611b075760405162461bcd60e51b815260206004820152603160248201527f45524337323155524953746f726167653a2055524920717565727920666f72206044820152703737b732bc34b9ba32b73a103a37b5b2b760791b60648201526084016107fd565b6000828152600c602052604081208054611b2090612ced565b80601f0160208091040260200160405190810160405280929190818152602001828054611b4c90612ced565b8015611b995780601f10611b6e57610100808354040283529160200191611b99565b820191906000526020600020905b815481529060010190602001808311611b7c57829003601f168201915b505050505090506000611baa61218b565b9050805160001415611bbd575092915050565b815115611bef578082604051602001611bd7929190612a46565b60405160208183030381529060405292505050919050565b61171d8461219a565b60006106fd825490565b610d738282612264565b611c16828261111c565b610b45576000828152602081815260408083206001600160a01b03851684529091529020805460ff19166001179055611c4c3390565b6001600160a01b0316816001600160a01b0316837f2f8788117e7eff1d82e926ec794901d17c78024a50270940304540a733656f0d60405160405180910390a45050565b6000818152600183016020526040812054611cd7575081546001818101845560008481526020808220909301849055845484825282860190935260409020919091556106fd565b5060006106fd565b60006001600160e01b031982166380ac58cd60e01b1480611d1057506001600160e01b03198216635b5e139f60e01b145b806106fd57506106fd82612281565b61092e8383836122a6565b60606000611d39836002612c74565b611d44906002612c48565b6001600160401b03811115611d5b57611d5b612daf565b6040519080825280601f01601f191660200182016040528015611d85576020820181803683370190505b509050600360fc1b81600081518110611da057611da0612d99565b60200101906001600160f81b031916908160001a905350600f60fb1b81600181518110611dcf57611dcf612d99565b60200101906001600160f81b031916908160001a9053506000611df3846002612c74565b611dfe906001612c48565b90505b6001811115611e76576f181899199a1a9b1b9c1cb0b131b232b360811b85600f1660108110611e3257611e32612d99565b1a60f81b828281518110611e4857611e48612d99565b60200101906001600160f81b031916908160001a90535060049490941c93611e6f81612cd6565b9050611e01565b5083156110ba5760405162461bcd60e51b815260206004820181905260248201527f537472696e67733a20686578206c656e67746820696e73756666696369656e7460448201526064016107fd565b611ece82610bd5565b611ed881336118d0565b61092e8383611c0c565b611eec828261111c565b15610b45576000828152602081815260408083206001600160a01b0385168085529252808320805460ff1916905551339285917ff6391f5c32d9c69d2a47ea670b442974b53935d1edc7fd64eb21e047a839171b9190a45050565b60008181526001830160205260408120548015612030576000611f6b600183612c93565b8554909150600090611f7f90600190612c93565b9050818114611fe4576000866000018281548110611f9f57611f9f612d99565b9060005260206000200154905080876000018481548110611fc257611fc2612d99565b6000918252602080832090910192909255918252600188019052604090208390555b8554869080611ff557611ff5612d83565b6001900381819060005260206000200160009055905585600101600086815260200190815260200160002060009055600193505050506106fd565b60009150506106fd565b610b4582826040518060200160405280600081525061235e565b600082600001828154811061206b5761206b612d99565b9060005260206000200154905092915050565b60006001600160a01b0384163b1561218057604051630a85bd0160e11b81526001600160a01b0385169063150b7a02906120c2903390899088908890600401612ae4565b602060405180830381600087803b1580156120dc57600080fd5b505af192505050801561210c575060408051601f3d908101601f1916820190925261210991810190612983565b60015b612166573d80801561213a576040519150601f19603f3d011682016040523d82523d6000602084013e61213f565b606091505b50805161215e5760405162461bcd60e51b81526004016107fd90612b34565b805181602001fd5b6001600160e01b031916630a85bd0160e11b14905061171d565b506001949350505050565b6060600f805461071290612ced565b60606121a5826113cd565b6122095760405162461bcd60e51b815260206004820152602f60248201527f4552433732314d657461646174613a2055524920717565727920666f72206e6f60448201526e3732bc34b9ba32b73a103a37b5b2b760891b60648201526084016107fd565b600061221361218b565b9050600081511161223357604051806020016040528060008152506110ba565b8061223d84612391565b60405160200161224e929190612a46565b6040516020818303038152906040529392505050565b61226d82610bd5565b61227781336118d0565b61092e8383611ee2565b60006001600160e01b03198216635a05180f60e01b14806106fd57506106fd8261248e565b6001600160a01b038316612301576122fc81600a80546000838152600b60205260408120829055600182018355919091527fc65a7bb8d6351c1cf70c95a316cc6a92839c986682d98bc35f958f4883f9d2a80155565b612324565b816001600160a01b0316836001600160a01b0316146123245761232483826124c3565b6001600160a01b03821661233b5761092e81612560565b826001600160a01b0316826001600160a01b03161461092e5761092e828261260f565b6123688383611458565b612375600084848461207e565b61092e5760405162461bcd60e51b81526004016107fd90612b34565b6060816123b55750506040805180820190915260018152600360fc1b602082015290565b8160005b81156123df57806123c981612d28565b91506123d89050600a83612c60565b91506123b9565b6000816001600160401b038111156123f9576123f9612daf565b6040519080825280601f01601f191660200182016040528015612423576020820181803683370190505b5090505b841561171d57612438600183612c93565b9150612445600a86612d43565b612450906030612c48565b60f81b81838151811061246557612465612d99565b60200101906001600160f81b031916908160001a905350612487600a86612c60565b9450612427565b60006001600160e01b03198216637965db0b60e01b14806106fd57506301ffc9a760e01b6001600160e01b03198316146106fd565b600060016124d084610fd3565b6124da9190612c93565b60008381526009602052604090205490915080821461252d576001600160a01b03841660009081526008602090815260408083208584528252808320548484528184208190558352600990915290208190555b5060009182526009602090815260408084208490556001600160a01b039094168352600881528383209183525290812055565b600a5460009061257290600190612c93565b6000838152600b6020526040812054600a805493945090928490811061259a5761259a612d99565b9060005260206000200154905080600a83815481106125bb576125bb612d99565b6000918252602080832090910192909255828152600b9091526040808220849055858252812055600a8054806125f3576125f3612d83565b6001900381819060005260206000200160009055905550505050565b600061261a83610fd3565b6001600160a01b039093166000908152600860209081526040808320868452825280832085905593825260099052919091209190915550565b82805461265f90612ced565b90600052602060002090601f01602090048101928261268157600085556126c7565b82601f1061269a57805160ff19168380011785556126c7565b828001600101855582156126c7579182015b828111156126c75782518255916020019190600101906126ac565b506126d39291506126d7565b5090565b5b808211156126d357600081556001016126d8565b60006001600160401b038084111561270657612706612daf565b604051601f8501601f19908116603f0116810190828211818310171561272e5761272e612daf565b8160405280935085815286868601111561274757600080fd5b858560208301376000602087830101525050509392505050565b80356001600160a01b038116811461277857600080fd5b919050565b600082601f83011261278e57600080fd5b6110ba838335602085016126ec565b6000602082840312156127af57600080fd5b6110ba82612761565b600080604083850312156127cb57600080fd5b6127d483612761565b91506127e260208401612761565b90509250929050565b60008060006060848603121561280057600080fd5b61280984612761565b925061281760208501612761565b9150604084013590509250925092565b6000806000806080858703121561283d57600080fd5b61284685612761565b935061285460208601612761565b92506040850135915060608501356001600160401b0381111561287657600080fd5b8501601f8101871361288757600080fd5b612896878235602084016126ec565b91505092959194509250565b600080604083850312156128b557600080fd5b6128be83612761565b9150602083013580151581146128d357600080fd5b809150509250929050565b600080604083850312156128f157600080fd5b6128fa83612761565b946020939093013593505050565b60006020828403121561291a57600080fd5b5035919050565b6000806040838503121561293457600080fd5b823591506127e260208401612761565b6000806040838503121561295757600080fd5b50508035926020909101359150565b60006020828403121561297857600080fd5b81356110ba81612dc5565b60006020828403121561299557600080fd5b81516110ba81612dc5565b6000602082840312156129b257600080fd5b81356001600160401b038111156129c857600080fd5b61171d8482850161277d565b600080604083850312156129e757600080fd5b8235915060208301356001600160401b03811115612a0457600080fd5b612a108582860161277d565b9150509250929050565b60008151808452612a32816020860160208601612caa565b601f01601f19169290920160200192915050565b60008351612a58818460208801612caa565b835190830190612a6c818360208801612caa565b01949350505050565b76020b1b1b2b9b9a1b7b73a3937b61d1030b1b1b7bab73a1604d1b815260008351612aa7816017850160208801612caa565b7001034b99036b4b9b9b4b733903937b6329607d1b6017918401918201528351612ad8816028840160208801612caa565b01602801949350505050565b6001600160a01b0385811682528416602082015260408101839052608060608201819052600090612b1790830184612a1a565b9695505050505050565b6020815260006110ba6020830184612a1a565b60208082526032908201527f4552433732313a207472616e7366657220746f206e6f6e20455243373231526560408201527131b2b4bb32b91034b6b83632b6b2b73a32b960711b606082015260800190565b6020808252818101527f4f776e61626c653a2063616c6c6572206973206e6f7420746865206f776e6572604082015260600190565b60208082526031908201527f4552433732313a207472616e736665722063616c6c6572206973206e6f74206f6040820152701ddb995c881b9bdc88185c1c1c9bdd9959607a1b606082015260800190565b6020808252602e90820152600080516020612ddc83398151915260408201526d6f206368616e676520707269636560901b606082015260800190565b60008219821115612c5b57612c5b612d57565b500190565b600082612c6f57612c6f612d6d565b500490565b6000816000190483118215151615612c8e57612c8e612d57565b500290565b600082821015612ca557612ca5612d57565b500390565b60005b83811015612cc5578181015183820152602001612cad565b838111156112475750506000910152565b600081612ce557612ce5612d57565b506000190190565b600181811c90821680612d0157607f821691505b60208210811415612d2257634e487b7160e01b600052602260045260246000fd5b50919050565b6000600019821415612d3c57612d3c612d57565b5060010190565b600082612d5257612d52612d6d565b500690565b634e487b7160e01b600052601160045260246000fd5b634e487b7160e01b600052601260045260246000fd5b634e487b7160e01b600052603160045260246000fd5b634e487b7160e01b600052603260045260246000fd5b634e487b7160e01b600052604160045260246000fd5b6001600160e01b03198116811461138657600080fdfe424e4250756e6b733a206d75737420686176652061646d696e20726f6c652074a264697066735822122041880ca4dc71c270602988f6949c0e54b9442d48b028fb18ff3b5c808254f26a64736f6c6343000807003368747470733a2f2f6d6574616c6f6f742e6865726f6b756170702e636f6d2f6170692f746f6b656e2f",
  "immutableReferences": {},
  "source": "//SPDX-License-Identifier: MIT\npragma solidity ^0.8.0;\n\nimport \"@openzeppelin/contracts/token/ERC721/ERC721.sol\";\nimport \"@openzeppelin/contracts/token/ERC721/extensions/ERC721Enumerable.sol\";\nimport \"@openzeppelin/contracts/token/ERC721/extensions/ERC721Burnable.sol\";\nimport \"@openzeppelin/contracts/token/ERC721/extensions/ERC721Pausable.sol\";\nimport \"@openzeppelin/contracts/token/ERC721/extensions/ERC721URIStorage.sol\";\nimport \"@openzeppelin/contracts/access/AccessControlEnumerable.sol\";\nimport \"@openzeppelin/contracts/access/IAccessControl.sol\";\nimport \"@openzeppelin/contracts/access/Ownable.sol\";\nimport \"@openzeppelin/contracts/utils/Context.sol\";\nimport \"@openzeppelin/contracts/utils/Counters.sol\";\n\ncontract Loot is Context, AccessControlEnumerable, ERC721Enumerable, ERC721URIStorage, Ownable {\n  using Counters for Counters.Counter;\n  Counters.Counter public _tokenIdTracker;\n\n  string private _baseTokenURI = \"https://metaloot.herokuapp.com/api/token/\";\n  uint private _price;\n  uint private _max;\n  address private _admin;\n\n  mapping (uint256 => address ) public creator;\n\n  bool public saleIsActive = false;\n\n  constructor(string memory name, string memory symbol, uint mintPrice, uint max, address admin, address admin2) ERC721(name, symbol) {\n      _price = mintPrice;\n      _max = max;\n      _admin = admin;\n\n      _setupRole(DEFAULT_ADMIN_ROLE, admin);\n      _setupRole(DEFAULT_ADMIN_ROLE, admin2);\n  }\n\n  function _baseURI() internal view virtual override returns (string memory) {\n      return _baseTokenURI;\n  }\n\n  function contractURI() public pure returns (string memory) {\n\t\treturn \"https://binanceloot.io\";\n\t}\n\n  function setBaseURI(string memory baseURI) external onlyOwner() {\n    require(hasRole(DEFAULT_ADMIN_ROLE, _msgSender()), \"BNBPunks: must have admin role to change base URI\");\n    _baseTokenURI = baseURI;\n  }\n\n  function setTokenURI(uint256 tokenId, string memory _tokenURI) external onlyOwner() {\n    require(hasRole(DEFAULT_ADMIN_ROLE, _msgSender()), \"BNBPunks: must have admin role to change token URI\");\n    _setTokenURI(tokenId, _tokenURI);\n  }\n\n  function setPrice(uint mintPrice) external onlyOwner() {\n    require(hasRole(DEFAULT_ADMIN_ROLE, _msgSender()), \"BNBPunks: must have admin role to change price\");\n    _price = mintPrice;\n  }\n\n  function setMax(uint maxSupply) external onlyOwner() {\n    require(hasRole(DEFAULT_ADMIN_ROLE, _msgSender()), \"BNBPunks: must have admin role to change price\");\n    _max = maxSupply;\n  }\n\n  function price() public view returns (uint) {\n    return _price;\n  }\n\n  function mint() public payable {\n    require(saleIsActive, \"Sale must be active to mint\");\n    require(msg.value == _price, \"BNBPunks: must send correct price\");\n    require(_tokenIdTracker.current() < _max, \"BNBPunks: all BNBPunks have been minted\");\n\n    _mint(msg.sender, _tokenIdTracker.current());\n    creator[_tokenIdTracker.current()] = msg.sender;\n\n    _tokenIdTracker.increment();\n    splitBalance(msg.value);\n  }\n\n  function mineReserves(uint _amount) public {\n    require(hasRole(DEFAULT_ADMIN_ROLE, _msgSender()), \"BNBPunks: must have admin role to mine reserves\");\n\n    for(uint x = 0; x < _amount; x++){\n        reserves_mint();\n    }\n  }\n\n  function flipSaleState() public onlyOwner() {\n   require(hasRole(DEFAULT_ADMIN_ROLE, _msgSender()), \"BNBPunks: must have admin role to flip sales\");\n    saleIsActive = !saleIsActive;\n  }\n\n  function reserves_mint() private {\n        _safeMint(msg.sender, _tokenIdTracker.current());\n        _tokenIdTracker.increment();\n  }\n\n  function punkCreator(uint256 tokenId) public view returns(address){\n    return creator[tokenId];\n  }\n\n  function _burn(uint256 tokenId) internal virtual override(ERC721, ERC721URIStorage) {\n    return ERC721URIStorage._burn(tokenId);\n  }\n\n  function tokenURI(uint256 tokenId) public view override(ERC721, ERC721URIStorage) returns (string memory) {\n    return ERC721URIStorage.tokenURI(tokenId);\n  }\n\n  function _beforeTokenTransfer(address from, address to, uint256 tokenId) internal virtual override(ERC721, ERC721Enumerable) {\n    super._beforeTokenTransfer(from, to, tokenId);\n  }\n\n  /**\n    * @dev See {IERC165-supportsInterface}.\n    */\n  function supportsInterface(bytes4 interfaceId) public view virtual override(AccessControlEnumerable, ERC721, ERC721Enumerable) returns (bool) {\n    return super.supportsInterface(interfaceId);\n  }\n\n  function splitBalance(uint256 amount) private {\n      payable(_admin).transfer(amount);\n  }\n\n  function revokeRole(bytes32 role, address account) public virtual override onlyRole(getRoleAdmin(role)) onlyOwner() {\n    super.revokeRole(role, account);\n  }\n\n  function grantRole(bytes32 role, address account) public virtual override onlyRole(getRoleAdmin(role)) onlyOwner() {\n    super.grantRole(role, account);\n  }\n}\n",
  "sourcePath": "/Users/armenmerikyan/Desktop/LOOT/contracts/Loot.sol",
  "compiler": {
    "name": "solc",
    "version": "0.8.7+commit.e28d00a7.Emscripten.clang"
  },
  "schemaVersion": "3.4.3",
  "updatedAt": "2021-09-07T08:34:21.109Z",
  "networkType": "ethereum",
  "devdoc": {
    "kind": "dev",
    "methods": {
      "approve(address,uint256)": {
        "details": "See {IERC721-approve}."
      },
      "balanceOf(address)": {
        "details": "See {IERC721-balanceOf}."
      },
      "getApproved(uint256)": {
        "details": "See {IERC721-getApproved}."
      },
      "getRoleAdmin(bytes32)": {
        "details": "Returns the admin role that controls `role`. See {grantRole} and {revokeRole}. To change a role's admin, use {_setRoleAdmin}."
      },
      "getRoleMember(bytes32,uint256)": {
        "details": "Returns one of the accounts that have `role`. `index` must be a value between 0 and {getRoleMemberCount}, non-inclusive. Role bearers are not sorted in any particular way, and their ordering may change at any point. WARNING: When using {getRoleMember} and {getRoleMemberCount}, make sure you perform all queries on the same block. See the following https://forum.openzeppelin.com/t/iterating-over-elements-on-enumerableset-in-openzeppelin-contracts/2296[forum post] for more information."
      },
      "getRoleMemberCount(bytes32)": {
        "details": "Returns the number of accounts that have `role`. Can be used together with {getRoleMember} to enumerate all bearers of a role."
      },
      "grantRole(bytes32,address)": {
        "details": "Overload {grantRole} to track enumerable memberships"
      },
      "hasRole(bytes32,address)": {
        "details": "Returns `true` if `account` has been granted `role`."
      },
      "isApprovedForAll(address,address)": {
        "details": "See {IERC721-isApprovedForAll}."
      },
      "name()": {
        "details": "See {IERC721Metadata-name}."
      },
      "owner()": {
        "details": "Returns the address of the current owner."
      },
      "ownerOf(uint256)": {
        "details": "See {IERC721-ownerOf}."
      },
      "renounceOwnership()": {
        "details": "Leaves the contract without owner. It will not be possible to call `onlyOwner` functions anymore. Can only be called by the current owner. NOTE: Renouncing ownership will leave the contract without an owner, thereby removing any functionality that is only available to the owner."
      },
      "renounceRole(bytes32,address)": {
        "details": "Overload {renounceRole} to track enumerable memberships"
      },
      "revokeRole(bytes32,address)": {
        "details": "Overload {revokeRole} to track enumerable memberships"
      },
      "safeTransferFrom(address,address,uint256)": {
        "details": "See {IERC721-safeTransferFrom}."
      },
      "safeTransferFrom(address,address,uint256,bytes)": {
        "details": "See {IERC721-safeTransferFrom}."
      },
      "setApprovalForAll(address,bool)": {
        "details": "See {IERC721-setApprovalForAll}."
      },
      "supportsInterface(bytes4)": {
        "details": "See {IERC165-supportsInterface}."
      },
      "symbol()": {
        "details": "See {IERC721Metadata-symbol}."
      },
      "tokenByIndex(uint256)": {
        "details": "See {IERC721Enumerable-tokenByIndex}."
      },
      "tokenOfOwnerByIndex(address,uint256)": {
        "details": "See {IERC721Enumerable-tokenOfOwnerByIndex}."
      },
      "totalSupply()": {
        "details": "See {IERC721Enumerable-totalSupply}."
      },
      "transferFrom(address,address,uint256)": {
        "details": "See {IERC721-transferFrom}."
      },
      "transferOwnership(address)": {
        "details": "Transfers ownership of the contract to a new account (`newOwner`). Can only be called by the current owner."
      }
    },
    "version": 1
  },
  "userdoc": {
    "kind": "user",
    "methods": {},
    "version": 1
  }
}