{
  "contractName": "Loot",
  "abi": [
    {
      "inputs": [
        {
          "internalType": "string",
          "name": "name",
          "type": "string"
        },
        {
          "internalType": "string",
          "name": "symbol",
          "type": "string"
        },
        {
          "internalType": "string",
          "name": "baseTokenURI",
          "type": "string"
        },
        {
          "internalType": "uint256",
          "name": "mintPrice",
          "type": "uint256"
        },
        {
          "internalType": "uint256",
          "name": "max",
          "type": "uint256"
        },
        {
          "internalType": "address",
          "name": "admin",
          "type": "address"
        }
      ],
      "stateMutability": "nonpayable",
      "type": "constructor"
    },
    {
      "anonymous": false,
      "inputs": [
        {
          "indexed": true,
          "internalType": "address",
          "name": "owner",
          "type": "address"
        },
        {
          "indexed": true,
          "internalType": "address",
          "name": "approved",
          "type": "address"
        },
        {
          "indexed": true,
          "internalType": "uint256",
          "name": "tokenId",
          "type": "uint256"
        }
      ],
      "name": "Approval",
      "type": "event"
    },
    {
      "anonymous": false,
      "inputs": [
        {
          "indexed": true,
          "internalType": "address",
          "name": "owner",
          "type": "address"
        },
        {
          "indexed": true,
          "internalType": "address",
          "name": "operator",
          "type": "address"
        },
        {
          "indexed": false,
          "internalType": "bool",
          "name": "approved",
          "type": "bool"
        }
      ],
      "name": "ApprovalForAll",
      "type": "event"
    },
    {
      "anonymous": false,
      "inputs": [
        {
          "indexed": true,
          "internalType": "bytes32",
          "name": "role",
          "type": "bytes32"
        },
        {
          "indexed": true,
          "internalType": "bytes32",
          "name": "previousAdminRole",
          "type": "bytes32"
        },
        {
          "indexed": true,
          "internalType": "bytes32",
          "name": "newAdminRole",
          "type": "bytes32"
        }
      ],
      "name": "RoleAdminChanged",
      "type": "event"
    },
    {
      "anonymous": false,
      "inputs": [
        {
          "indexed": true,
          "internalType": "bytes32",
          "name": "role",
          "type": "bytes32"
        },
        {
          "indexed": true,
          "internalType": "address",
          "name": "account",
          "type": "address"
        },
        {
          "indexed": true,
          "internalType": "address",
          "name": "sender",
          "type": "address"
        }
      ],
      "name": "RoleGranted",
      "type": "event"
    },
    {
      "anonymous": false,
      "inputs": [
        {
          "indexed": true,
          "internalType": "bytes32",
          "name": "role",
          "type": "bytes32"
        },
        {
          "indexed": true,
          "internalType": "address",
          "name": "account",
          "type": "address"
        },
        {
          "indexed": true,
          "internalType": "address",
          "name": "sender",
          "type": "address"
        }
      ],
      "name": "RoleRevoked",
      "type": "event"
    },
    {
      "anonymous": false,
      "inputs": [
        {
          "indexed": true,
          "internalType": "address",
          "name": "from",
          "type": "address"
        },
        {
          "indexed": true,
          "internalType": "address",
          "name": "to",
          "type": "address"
        },
        {
          "indexed": true,
          "internalType": "uint256",
          "name": "tokenId",
          "type": "uint256"
        }
      ],
      "name": "Transfer",
      "type": "event"
    },
    {
      "inputs": [],
      "name": "DEFAULT_ADMIN_ROLE",
      "outputs": [
        {
          "internalType": "bytes32",
          "name": "",
          "type": "bytes32"
        }
      ],
      "stateMutability": "view",
      "type": "function",
      "constant": true
    },
    {
      "inputs": [],
      "name": "_tokenIdTracker",
      "outputs": [
        {
          "internalType": "uint256",
          "name": "_value",
          "type": "uint256"
        }
      ],
      "stateMutability": "view",
      "type": "function",
      "constant": true
    },
    {
      "inputs": [
        {
          "internalType": "address",
          "name": "to",
          "type": "address"
        },
        {
          "internalType": "uint256",
          "name": "tokenId",
          "type": "uint256"
        }
      ],
      "name": "approve",
      "outputs": [],
      "stateMutability": "nonpayable",
      "type": "function"
    },
    {
      "inputs": [
        {
          "internalType": "address",
          "name": "owner",
          "type": "address"
        }
      ],
      "name": "balanceOf",
      "outputs": [
        {
          "internalType": "uint256",
          "name": "",
          "type": "uint256"
        }
      ],
      "stateMutability": "view",
      "type": "function",
      "constant": true
    },
    {
      "inputs": [
        {
          "internalType": "uint256",
          "name": "",
          "type": "uint256"
        }
      ],
      "name": "creator",
      "outputs": [
        {
          "internalType": "address",
          "name": "",
          "type": "address"
        }
      ],
      "stateMutability": "view",
      "type": "function",
      "constant": true
    },
    {
      "inputs": [
        {
          "internalType": "uint256",
          "name": "tokenId",
          "type": "uint256"
        }
      ],
      "name": "getApproved",
      "outputs": [
        {
          "internalType": "address",
          "name": "",
          "type": "address"
        }
      ],
      "stateMutability": "view",
      "type": "function",
      "constant": true
    },
    {
      "inputs": [
        {
          "internalType": "bytes32",
          "name": "role",
          "type": "bytes32"
        }
      ],
      "name": "getRoleAdmin",
      "outputs": [
        {
          "internalType": "bytes32",
          "name": "",
          "type": "bytes32"
        }
      ],
      "stateMutability": "view",
      "type": "function",
      "constant": true
    },
    {
      "inputs": [
        {
          "internalType": "bytes32",
          "name": "role",
          "type": "bytes32"
        },
        {
          "internalType": "uint256",
          "name": "index",
          "type": "uint256"
        }
      ],
      "name": "getRoleMember",
      "outputs": [
        {
          "internalType": "address",
          "name": "",
          "type": "address"
        }
      ],
      "stateMutability": "view",
      "type": "function",
      "constant": true
    },
    {
      "inputs": [
        {
          "internalType": "bytes32",
          "name": "role",
          "type": "bytes32"
        }
      ],
      "name": "getRoleMemberCount",
      "outputs": [
        {
          "internalType": "uint256",
          "name": "",
          "type": "uint256"
        }
      ],
      "stateMutability": "view",
      "type": "function",
      "constant": true
    },
    {
      "inputs": [
        {
          "internalType": "bytes32",
          "name": "role",
          "type": "bytes32"
        },
        {
          "internalType": "address",
          "name": "account",
          "type": "address"
        }
      ],
      "name": "grantRole",
      "outputs": [],
      "stateMutability": "nonpayable",
      "type": "function"
    },
    {
      "inputs": [
        {
          "internalType": "bytes32",
          "name": "role",
          "type": "bytes32"
        },
        {
          "internalType": "address",
          "name": "account",
          "type": "address"
        }
      ],
      "name": "hasRole",
      "outputs": [
        {
          "internalType": "bool",
          "name": "",
          "type": "bool"
        }
      ],
      "stateMutability": "view",
      "type": "function",
      "constant": true
    },
    {
      "inputs": [
        {
          "internalType": "address",
          "name": "owner",
          "type": "address"
        },
        {
          "internalType": "address",
          "name": "operator",
          "type": "address"
        }
      ],
      "name": "isApprovedForAll",
      "outputs": [
        {
          "internalType": "bool",
          "name": "",
          "type": "bool"
        }
      ],
      "stateMutability": "view",
      "type": "function",
      "constant": true
    },
    {
      "inputs": [],
      "name": "name",
      "outputs": [
        {
          "internalType": "string",
          "name": "",
          "type": "string"
        }
      ],
      "stateMutability": "view",
      "type": "function",
      "constant": true
    },
    {
      "inputs": [
        {
          "internalType": "uint256",
          "name": "tokenId",
          "type": "uint256"
        }
      ],
      "name": "ownerOf",
      "outputs": [
        {
          "internalType": "address",
          "name": "",
          "type": "address"
        }
      ],
      "stateMutability": "view",
      "type": "function",
      "constant": true
    },
    {
      "inputs": [],
      "name": "reflectionBalance",
      "outputs": [
        {
          "internalType": "uint256",
          "name": "",
          "type": "uint256"
        }
      ],
      "stateMutability": "view",
      "type": "function",
      "constant": true
    },
    {
      "inputs": [
        {
          "internalType": "bytes32",
          "name": "role",
          "type": "bytes32"
        },
        {
          "internalType": "address",
          "name": "account",
          "type": "address"
        }
      ],
      "name": "renounceRole",
      "outputs": [],
      "stateMutability": "nonpayable",
      "type": "function"
    },
    {
      "inputs": [
        {
          "internalType": "bytes32",
          "name": "role",
          "type": "bytes32"
        },
        {
          "internalType": "address",
          "name": "account",
          "type": "address"
        }
      ],
      "name": "revokeRole",
      "outputs": [],
      "stateMutability": "nonpayable",
      "type": "function"
    },
    {
      "inputs": [
        {
          "internalType": "address",
          "name": "from",
          "type": "address"
        },
        {
          "internalType": "address",
          "name": "to",
          "type": "address"
        },
        {
          "internalType": "uint256",
          "name": "tokenId",
          "type": "uint256"
        }
      ],
      "name": "safeTransferFrom",
      "outputs": [],
      "stateMutability": "nonpayable",
      "type": "function"
    },
    {
      "inputs": [
        {
          "internalType": "address",
          "name": "from",
          "type": "address"
        },
        {
          "internalType": "address",
          "name": "to",
          "type": "address"
        },
        {
          "internalType": "uint256",
          "name": "tokenId",
          "type": "uint256"
        },
        {
          "internalType": "bytes",
          "name": "_data",
          "type": "bytes"
        }
      ],
      "name": "safeTransferFrom",
      "outputs": [],
      "stateMutability": "nonpayable",
      "type": "function"
    },
    {
      "inputs": [
        {
          "internalType": "address",
          "name": "operator",
          "type": "address"
        },
        {
          "internalType": "bool",
          "name": "approved",
          "type": "bool"
        }
      ],
      "name": "setApprovalForAll",
      "outputs": [],
      "stateMutability": "nonpayable",
      "type": "function"
    },
    {
      "inputs": [],
      "name": "symbol",
      "outputs": [
        {
          "internalType": "string",
          "name": "",
          "type": "string"
        }
      ],
      "stateMutability": "view",
      "type": "function",
      "constant": true
    },
    {
      "inputs": [
        {
          "internalType": "uint256",
          "name": "index",
          "type": "uint256"
        }
      ],
      "name": "tokenByIndex",
      "outputs": [
        {
          "internalType": "uint256",
          "name": "",
          "type": "uint256"
        }
      ],
      "stateMutability": "view",
      "type": "function",
      "constant": true
    },
    {
      "inputs": [
        {
          "internalType": "address",
          "name": "owner",
          "type": "address"
        },
        {
          "internalType": "uint256",
          "name": "index",
          "type": "uint256"
        }
      ],
      "name": "tokenOfOwnerByIndex",
      "outputs": [
        {
          "internalType": "uint256",
          "name": "",
          "type": "uint256"
        }
      ],
      "stateMutability": "view",
      "type": "function",
      "constant": true
    },
    {
      "inputs": [],
      "name": "totalDividend",
      "outputs": [
        {
          "internalType": "uint256",
          "name": "",
          "type": "uint256"
        }
      ],
      "stateMutability": "view",
      "type": "function",
      "constant": true
    },
    {
      "inputs": [],
      "name": "totalSupply",
      "outputs": [
        {
          "internalType": "uint256",
          "name": "",
          "type": "uint256"
        }
      ],
      "stateMutability": "view",
      "type": "function",
      "constant": true
    },
    {
      "inputs": [
        {
          "internalType": "address",
          "name": "from",
          "type": "address"
        },
        {
          "internalType": "address",
          "name": "to",
          "type": "address"
        },
        {
          "internalType": "uint256",
          "name": "tokenId",
          "type": "uint256"
        }
      ],
      "name": "transferFrom",
      "outputs": [],
      "stateMutability": "nonpayable",
      "type": "function"
    },
    {
      "inputs": [
        {
          "internalType": "string",
          "name": "baseURI",
          "type": "string"
        }
      ],
      "name": "setBaseURI",
      "outputs": [],
      "stateMutability": "nonpayable",
      "type": "function"
    },
    {
      "inputs": [
        {
          "internalType": "uint256",
          "name": "tokenId",
          "type": "uint256"
        },
        {
          "internalType": "string",
          "name": "_tokenURI",
          "type": "string"
        }
      ],
      "name": "setTokenURI",
      "outputs": [],
      "stateMutability": "nonpayable",
      "type": "function"
    },
    {
      "inputs": [
        {
          "internalType": "uint256",
          "name": "mintPrice",
          "type": "uint256"
        }
      ],
      "name": "setPrice",
      "outputs": [],
      "stateMutability": "nonpayable",
      "type": "function"
    },
    {
      "inputs": [],
      "name": "price",
      "outputs": [
        {
          "internalType": "uint256",
          "name": "",
          "type": "uint256"
        }
      ],
      "stateMutability": "view",
      "type": "function",
      "constant": true
    },
    {
      "inputs": [],
      "name": "mint",
      "outputs": [],
      "stateMutability": "payable",
      "type": "function",
      "payable": true
    },
    {
      "inputs": [
        {
          "internalType": "uint256",
          "name": "tokenId",
          "type": "uint256"
        }
      ],
      "name": "punkCreator",
      "outputs": [
        {
          "internalType": "address",
          "name": "",
          "type": "address"
        }
      ],
      "stateMutability": "view",
      "type": "function",
      "constant": true
    },
    {
      "inputs": [
        {
          "internalType": "uint256",
          "name": "tokenId",
          "type": "uint256"
        }
      ],
      "name": "tokenURI",
      "outputs": [
        {
          "internalType": "string",
          "name": "",
          "type": "string"
        }
      ],
      "stateMutability": "view",
      "type": "function",
      "constant": true
    },
    {
      "inputs": [
        {
          "internalType": "bytes4",
          "name": "interfaceId",
          "type": "bytes4"
        }
      ],
      "name": "supportsInterface",
      "outputs": [
        {
          "internalType": "bool",
          "name": "",
          "type": "bool"
        }
      ],
      "stateMutability": "view",
      "type": "function",
      "constant": true
    },
    {
      "inputs": [],
      "name": "currentRate",
      "outputs": [
        {
          "internalType": "uint256",
          "name": "",
          "type": "uint256"
        }
      ],
      "stateMutability": "view",
      "type": "function",
      "constant": true
    },
    {
      "inputs": [],
      "name": "claimRewards",
      "outputs": [],
      "stateMutability": "nonpayable",
      "type": "function"
    },
    {
      "inputs": [],
      "name": "getReflectionBalances",
      "outputs": [
        {
          "internalType": "uint256",
          "name": "",
          "type": "uint256"
        }
      ],
      "stateMutability": "view",
      "type": "function",
      "constant": true
    },
    {
      "inputs": [
        {
          "internalType": "uint256",
          "name": "tokenId",
          "type": "uint256"
        }
      ],
      "name": "claimReward",
      "outputs": [],
      "stateMutability": "nonpayable",
      "type": "function"
    },
    {
      "inputs": [
        {
          "internalType": "uint256",
          "name": "tokenId",
          "type": "uint256"
        }
      ],
      "name": "getReflectionBalance",
      "outputs": [
        {
          "internalType": "uint256",
          "name": "",
          "type": "uint256"
        }
      ],
      "stateMutability": "view",
      "type": "function",
      "constant": true
    }
  ],
  "bytecode": "0x60806040523480156200001157600080fd5b5060405162002fcf38038062002fcf83398101604081905262000034916200037c565b8551869086906200004d9060029060208501906200021f565b508051620000639060039060208401906200021f565b505084516200007b9150600e9060208701906200021f565b50600f8390556010829055601180546001600160a01b0319166001600160a01b038316179055620000ae600082620000ba565b50505050505062000497565b620000d18282620000fd60201b620011691760201c565b6000828152600160209081526040909120620000f8918390620011736200010d821b17901c565b505050565b6200010982826200012d565b5050565b600062000124836001600160a01b038416620001cd565b90505b92915050565b6000828152602081815260408083206001600160a01b038516845290915290205460ff1662000109576000828152602081815260408083206001600160a01b03851684529091529020805460ff19166001179055620001893390565b6001600160a01b0316816001600160a01b0316837f2f8788117e7eff1d82e926ec794901d17c78024a50270940304540a733656f0d60405160405180910390a45050565b6000818152600183016020526040812054620002165750815460018181018455600084815260208082209093018490558454848252828601909352604090209190915562000127565b50600062000127565b8280546200022d9062000444565b90600052602060002090601f0160209004810192826200025157600085556200029c565b82601f106200026c57805160ff19168380011785556200029c565b828001600101855582156200029c579182015b828111156200029c5782518255916020019190600101906200027f565b50620002aa929150620002ae565b5090565b5b80821115620002aa5760008155600101620002af565b600082601f830112620002d757600080fd5b81516001600160401b0380821115620002f457620002f462000481565b604051601f8301601f19908116603f011681019082821181831017156200031f576200031f62000481565b816040528381526020925086838588010111156200033c57600080fd5b600091505b8382101562000360578582018301518183018401529082019062000341565b83821115620003725760008385830101525b9695505050505050565b60008060008060008060c087890312156200039657600080fd5b86516001600160401b0380821115620003ae57600080fd5b620003bc8a838b01620002c5565b97506020890151915080821115620003d357600080fd5b620003e18a838b01620002c5565b96506040890151915080821115620003f857600080fd5b506200040789828a01620002c5565b606089015160808a015160a08b0151929750909550935090506001600160a01b03811681146200043657600080fd5b809150509295509295509295565b600181811c908216806200045957607f821691505b602082108114156200047b57634e487b7160e01b600052602260045260246000fd5b50919050565b634e487b7160e01b600052604160045260246000fd5b612b2880620004a76000396000f3fe6080604052600436106101cf5760003560e01c80634f6ccce7116100fe5780634f6ccce71461043c578063510b51581461045c57806355f804b3146104925780636352211e146104b257806370a08231146104d25780639010d07c146104f257806391b7f5ed1461051257806391d148541461053257806395d89b411461055257806398bcede914610567578063a035b1fe1461057e578063a217fddf14610593578063a22cb465146105a8578063ae169a50146105c8578063b88d4fde146105e8578063c87b56dd14610608578063ca15c87314610628578063d547741f14610648578063e985e9c514610668578063f9f8bdb71461068857600080fd5b8062fe50c6146101d457806301eb99ec1461020757806301ffc9a71461021c57806306fdde031461024c578063081812fc1461026e578063095ea7b3146102a65780631249c58b146102c8578063162094c4146102d057806318160ddd146102f057806323b872dd14610305578063248a9ca3146103255780632f2ff15d146103455780632f745c591461036557806336568abe14610385578063372500ab146103a55780634131ff99146103ba57806342842e0e146103d0578063437bab41146103f05780634b6acafb14610426575b600080fd5b3480156101e057600080fd5b506101f46101ef36600461266d565b61069d565b6040519081526020015b60405180910390f35b34801561021357600080fd5b506101f46106bf565b34801561022857600080fd5b5061023c6102373660046126cb565b610717565b60405190151581526020016101fe565b34801561025857600080fd5b50610261610722565b6040516101fe9190612886565b34801561027a57600080fd5b5061028e61028936600461266d565b6107b4565b6040516001600160a01b0390911681526020016101fe565b3480156102b257600080fd5b506102c66102c1366004612643565b610841565b005b6102c6610952565b3480156102dc57600080fd5b506102c66102eb366004612739565b610a82565b3480156102fc57600080fd5b50600a546101f4565b34801561031157600080fd5b506102c6610320366004612550565b610aec565b34801561033157600080fd5b506101f461034036600461266d565b610b1d565b34801561035157600080fd5b506102c6610360366004612686565b610b32565b34801561037157600080fd5b506101f4610380366004612643565b610b54565b34801561039157600080fd5b506102c66103a0366004612686565b610bea565b3480156103b157600080fd5b506102c6610c0c565b3480156103c657600080fd5b506101f460125481565b3480156103dc57600080fd5b506102c66103eb366004612550565b610c4e565b3480156103fc57600080fd5b5061028e61040b36600461266d565b6000908152601560205260409020546001600160a01b031690565b34801561043257600080fd5b506101f460135481565b34801561044857600080fd5b506101f461045736600461266d565b610c69565b34801561046857600080fd5b5061028e61047736600461266d565b6015602052600090815260409020546001600160a01b031681565b34801561049e57600080fd5b506102c66104ad366004612705565b610cfc565b3480156104be57600080fd5b5061028e6104cd36600461266d565b610d6a565b3480156104de57600080fd5b506101f46104ed366004612502565b610de1565b3480156104fe57600080fd5b5061028e61050d3660046126a9565b610e68565b34801561051e57600080fd5b506102c661052d36600461266d565b610e87565b34801561053e57600080fd5b5061023c61054d366004612686565b610ee4565b34801561055e57600080fd5b50610261610f0d565b34801561057357600080fd5b50600d546101f49081565b34801561058a57600080fd5b50600f546101f4565b34801561059f57600080fd5b506101f4600081565b3480156105b457600080fd5b506102c66105c3366004612607565b610f1c565b3480156105d457600080fd5b506102c66105e336600461266d565b610fdd565b3480156105f457600080fd5b506102c661060336600461258c565b6110ad565b34801561061457600080fd5b5061026161062336600461266d565b6110e5565b34801561063457600080fd5b506101f461064336600461266d565b6110f0565b34801561065457600080fd5b506102c6610663366004612686565b611107565b34801561067457600080fd5b5061023c61068336600461251d565b611111565b34801561069457600080fd5b506101f461113f565b6000818152601460205260408120546013546106b99190612987565b92915050565b6000806106cb33610de1565b90506000805b828110156107105760006106e53383610b54565b90506106f08161069d565b6106fa908461293c565b925050808061070890612a1c565b9150506106d1565b5092915050565b60006106b982611188565b606060028054610731906129e1565b80601f016020809104026020016040519081016040528092919081815260200182805461075d906129e1565b80156107aa5780601f1061077f576101008083540402835291602001916107aa565b820191906000526020600020905b81548152906001019060200180831161078d57829003601f168201915b5050505050905090565b60006107bf826111ad565b6108255760405162461bcd60e51b815260206004820152602c60248201527f4552433732313a20617070726f76656420717565727920666f72206e6f6e657860448201526b34b9ba32b73a103a37b5b2b760a11b60648201526084015b60405180910390fd5b506000908152600660205260409020546001600160a01b031690565b600061084c82610d6a565b9050806001600160a01b0316836001600160a01b031614156108ba5760405162461bcd60e51b815260206004820152602160248201527f4552433732313a20617070726f76616c20746f2063757272656e74206f776e656044820152603960f91b606482015260840161081c565b336001600160a01b03821614806108d657506108d68133611111565b6109435760405162461bcd60e51b815260206004820152603860248201527f4552433732313a20617070726f76652063616c6c6572206973206e6f74206f776044820152771b995c881b9bdc88185c1c1c9bdd995908199bdc88185b1b60421b606482015260840161081c565b61094d83836111ca565b505050565b600f5434146109a35760405162461bcd60e51b815260206004820152601d60248201527f4c6f6f743a206d7573742073656e6420636f7272656374207072696365000000604482015260640161081c565b601054600d54106109f65760405162461bcd60e51b815260206004820152601f60248201527f4c6f6f743a20616c6c204c6f6f742068617665206265656e206d696e74656400604482015260640161081c565b610a0833610a03600d5490565b611238565b3360156000610a16600d5490565b815260200190815260200160002060006101000a8154816001600160a01b0302191690836001600160a01b0316021790555060135460146000610a58600d5490565b8152602081019190915260400160002055610a77600d80546001019055565b610a8034611376565b565b610a8d600033610ee4565b610ade5760405162461bcd60e51b815260206004820152602e6024820152600080516020612ad383398151915260448201526d616e676520746f6b656e2055524960901b606482015260840161081c565b610ae882826113d6565b5050565b610af63382611461565b610b125760405162461bcd60e51b815260040161081c906128eb565b61094d83838361152b565b60009081526020819052604090206001015490565b610b3c82826116d6565b600082815260016020526040902061094d9082611173565b6000610b5f83610de1565b8210610bc15760405162461bcd60e51b815260206004820152602b60248201527f455243373231456e756d657261626c653a206f776e657220696e646578206f7560448201526a74206f6620626f756e647360a81b606482015260840161081c565b506001600160a01b03919091166000908152600860209081526040808320938352929052205490565b610bf482826116f3565b600082815260016020526040902061094d908261176d565b6000610c1733610de1565b905060005b81811015610ae8576000610c303383610b54565b9050610c3b81610fdd565b5080610c4681612a1c565b915050610c1c565b61094d838383604051806020016040528060008152506110ad565b6000610c74600a5490565b8210610cd75760405162461bcd60e51b815260206004820152602c60248201527f455243373231456e756d657261626c653a20676c6f62616c20696e646578206f60448201526b7574206f6620626f756e647360a01b606482015260840161081c565b600a8281548110610cea57610cea612a8d565b90600052602060002001549050919050565b610d07600033610ee4565b610d575760405162461bcd60e51b815260206004820152602d6024820152600080516020612ad383398151915260448201526c616e676520626173652055524960981b606482015260840161081c565b8051610ae890600e9060208401906123b8565b6000818152600460205260408120546001600160a01b0316806106b95760405162461bcd60e51b815260206004820152602960248201527f4552433732313a206f776e657220717565727920666f72206e6f6e657869737460448201526832b73a103a37b5b2b760b91b606482015260840161081c565b60006001600160a01b038216610e4c5760405162461bcd60e51b815260206004820152602a60248201527f4552433732313a2062616c616e636520717565727920666f7220746865207a65604482015269726f206164647265737360b01b606482015260840161081c565b506001600160a01b031660009081526005602052604090205490565b6000828152600160205260408120610e809083611782565b9392505050565b610e92600033610ee4565b610edf5760405162461bcd60e51b815260206004820152602a6024820152600080516020612ad3833981519152604482015269616e676520707269636560b01b606482015260840161081c565b600f55565b6000918252602082815260408084206001600160a01b0393909316845291905290205460ff1690565b606060038054610731906129e1565b6001600160a01b038216331415610f715760405162461bcd60e51b815260206004820152601960248201527822a9219b99189d1030b8383937bb32903a379031b0b63632b960391b604482015260640161081c565b3360008181526007602090815260408083206001600160a01b03871680855290835292819020805460ff191686151590811790915590519081529192917f17307eab39ab6107e8899845ad3d59bd9653f200f220920489ca2b5937696c31910160405180910390a35050565b33610fe782610d6a565b6001600160a01b0316146110485760405162461bcd60e51b815260206004820152602260248201527f4c6f6f743a204f6e6c79206f776e65722063616e20636c61696d207265776172604482015261647360f01b606482015260840161081c565b60006110538261069d565b905061105e82610d6a565b6001600160a01b03166108fc829081150290604051600060405180830381858888f19350505050158015611096573d6000803e3d6000fd5b505060135460009182526014602052604090912055565b6110b73383611461565b6110d35760405162461bcd60e51b815260040161081c906128eb565b6110df8484848461178e565b50505050565b60606106b9826117c1565b60008181526001602052604081206106b990611923565b610bf4828261192d565b6001600160a01b03918216600090815260076020908152604080832093909416825291909152205460ff1690565b600061114a600a5490565b6111545750600090565b600a546012546111649190612954565b905090565b610ae8828261194a565b6000610e80836001600160a01b0384166119ce565b60006001600160e01b0319821663780e9d6360e01b14806106b957506106b982611a1d565b6000908152600460205260409020546001600160a01b0316151590565b600081815260066020526040902080546001600160a01b0319166001600160a01b03841690811790915581906111ff82610d6a565b6001600160a01b03167f8c5be1e5ebec7d5bd14f71427d1e84f3dd0314c0f7b2291e5b200ac8c7c3b92560405160405180910390a45050565b6001600160a01b03821661128e5760405162461bcd60e51b815260206004820181905260248201527f4552433732313a206d696e7420746f20746865207a65726f2061646472657373604482015260640161081c565b611297816111ad565b156112e35760405162461bcd60e51b815260206004820152601c60248201527b115490cdcc8c4e881d1bdad95b88185b1c9958591e481b5a5b9d195960221b604482015260640161081c565b6112ef60008383611a5d565b6001600160a01b038216600090815260056020526040812080546001929061131890849061293c565b909155505060008181526004602052604080822080546001600160a01b0319166001600160a01b03861690811790915590518392907fddf252ad1be2c89b69c2b068fc378daa952ba7f163c4a11628f55a4df523b3ef908290a45050565b6000611383602083612954565b905060006113918284612987565b905061139c82611a81565b6011546040516001600160a01b039091169082156108fc029083906000818181858888f193505050501580156110df573d6000803e3d6000fd5b6113df826111ad565b6114425760405162461bcd60e51b815260206004820152602e60248201527f45524337323155524953746f726167653a2055524920736574206f66206e6f6e60448201526d32bc34b9ba32b73a103a37b5b2b760911b606482015260840161081c565b6000828152600c60209081526040909120825161094d928401906123b8565b600061146c826111ad565b6114cd5760405162461bcd60e51b815260206004820152602c60248201527f4552433732313a206f70657261746f7220717565727920666f72206e6f6e657860448201526b34b9ba32b73a103a37b5b2b760a11b606482015260840161081c565b60006114d883610d6a565b9050806001600160a01b0316846001600160a01b031614806115135750836001600160a01b0316611508846107b4565b6001600160a01b0316145b8061152357506115238185611111565b949350505050565b826001600160a01b031661153e82610d6a565b6001600160a01b0316146115a65760405162461bcd60e51b815260206004820152602960248201527f4552433732313a207472616e73666572206f6620746f6b656e2074686174206960448201526839903737ba1037bbb760b91b606482015260840161081c565b6001600160a01b0382166116085760405162461bcd60e51b8152602060048201526024808201527f4552433732313a207472616e7366657220746f20746865207a65726f206164646044820152637265737360e01b606482015260840161081c565b611613838383611a5d565b61161e6000826111ca565b6001600160a01b0383166000908152600560205260408120805460019290611647908490612987565b90915550506001600160a01b038216600090815260056020526040812080546001929061167590849061293c565b909155505060008181526004602052604080822080546001600160a01b0319166001600160a01b0386811691821790925591518493918716917fddf252ad1be2c89b69c2b068fc378daa952ba7f163c4a11628f55a4df523b3ef91a4505050565b6116df82610b1d565b6116e98133611ab2565b61094d838361194a565b6001600160a01b03811633146117635760405162461bcd60e51b815260206004820152602f60248201527f416363657373436f6e74726f6c3a2063616e206f6e6c792072656e6f756e636560448201526e103937b632b9903337b91039b2b63360891b606482015260840161081c565b610ae88282611b16565b6000610e80836001600160a01b038416611b7b565b6000610e808383611c6e565b61179984848461152b565b6117a584848484611c98565b6110df5760405162461bcd60e51b815260040161081c90612899565b60606117cc826111ad565b6118325760405162461bcd60e51b815260206004820152603160248201527f45524337323155524953746f726167653a2055524920717565727920666f72206044820152703737b732bc34b9ba32b73a103a37b5b2b760791b606482015260840161081c565b6000828152600c60205260408120805461184b906129e1565b80601f0160208091040260200160405190810160405280929190818152602001828054611877906129e1565b80156118c45780601f10611899576101008083540402835291602001916118c4565b820191906000526020600020905b8154815290600101906020018083116118a757829003601f168201915b5050505050905060006118d5611da5565b90508051600014156118e8575092915050565b81511561191a5780826040516020016119029291906127ab565b60405160208183030381529060405292505050919050565b61152384611db4565b60006106b9825490565b61193682610b1d565b6119408133611ab2565b61094d8383611b16565b6119548282610ee4565b610ae8576000828152602081815260408083206001600160a01b03851684529091529020805460ff1916600117905561198a3390565b6001600160a01b0316816001600160a01b0316837f2f8788117e7eff1d82e926ec794901d17c78024a50270940304540a733656f0d60405160405180910390a45050565b6000818152600183016020526040812054611a15575081546001818101845560008481526020808220909301849055845484825282860190935260409020919091556106b9565b5060006106b9565b60006001600160e01b031982166380ac58cd60e01b1480611a4e57506001600160e01b03198216635b5e139f60e01b145b806106b957506106b982611e7e565b80611a67600a5490565b1115611a7657611a7681610fdd565b61094d838383611ea3565b80601254611a8f919061293c565b601255600a54611a9f9082612954565b601354611aac919061293c565b60135550565b611abc8282610ee4565b610ae857611ad4816001600160a01b03166014611f5b565b611adf836020611f5b565b604051602001611af09291906127da565b60408051601f198184030181529082905262461bcd60e51b825261081c91600401612886565b611b208282610ee4565b15610ae8576000828152602081815260408083206001600160a01b0385168085529252808320805460ff1916905551339285917ff6391f5c32d9c69d2a47ea670b442974b53935d1edc7fd64eb21e047a839171b9190a45050565b60008181526001830160205260408120548015611c64576000611b9f600183612987565b8554909150600090611bb390600190612987565b9050818114611c18576000866000018281548110611bd357611bd3612a8d565b9060005260206000200154905080876000018481548110611bf657611bf6612a8d565b6000918252602080832090910192909255918252600188019052604090208390555b8554869080611c2957611c29612a77565b6001900381819060005260206000200160009055905585600101600086815260200190815260200160002060009055600193505050506106b9565b60009150506106b9565b6000826000018281548110611c8557611c85612a8d565b9060005260206000200154905092915050565b60006001600160a01b0384163b15611d9a57604051630a85bd0160e11b81526001600160a01b0385169063150b7a0290611cdc903390899088908890600401612849565b602060405180830381600087803b158015611cf657600080fd5b505af1925050508015611d26575060408051601f3d908101601f19168201909252611d23918101906126e8565b60015b611d80573d808015611d54576040519150601f19603f3d011682016040523d82523d6000602084013e611d59565b606091505b508051611d785760405162461bcd60e51b815260040161081c90612899565b805181602001fd5b6001600160e01b031916630a85bd0160e11b149050611523565b506001949350505050565b6060600e8054610731906129e1565b6060611dbf826111ad565b611e235760405162461bcd60e51b815260206004820152602f60248201527f4552433732314d657461646174613a2055524920717565727920666f72206e6f60448201526e3732bc34b9ba32b73a103a37b5b2b760891b606482015260840161081c565b6000611e2d611da5565b90506000815111611e4d5760405180602001604052806000815250610e80565b80611e57846120f6565b604051602001611e689291906127ab565b6040516020818303038152906040529392505050565b60006001600160e01b03198216635a05180f60e01b14806106b957506106b9826121f3565b6001600160a01b038316611efe57611ef981600a80546000838152600b60205260408120829055600182018355919091527fc65a7bb8d6351c1cf70c95a316cc6a92839c986682d98bc35f958f4883f9d2a80155565b611f21565b816001600160a01b0316836001600160a01b031614611f2157611f218382612228565b6001600160a01b038216611f385761094d816122c5565b826001600160a01b0316826001600160a01b03161461094d5761094d8282612374565b60606000611f6a836002612968565b611f7590600261293c565b6001600160401b03811115611f8c57611f8c612aa3565b6040519080825280601f01601f191660200182016040528015611fb6576020820181803683370190505b509050600360fc1b81600081518110611fd157611fd1612a8d565b60200101906001600160f81b031916908160001a905350600f60fb1b8160018151811061200057612000612a8d565b60200101906001600160f81b031916908160001a9053506000612024846002612968565b61202f90600161293c565b90505b60018111156120a7576f181899199a1a9b1b9c1cb0b131b232b360811b85600f166010811061206357612063612a8d565b1a60f81b82828151811061207957612079612a8d565b60200101906001600160f81b031916908160001a90535060049490941c936120a0816129ca565b9050612032565b508315610e805760405162461bcd60e51b815260206004820181905260248201527f537472696e67733a20686578206c656e67746820696e73756666696369656e74604482015260640161081c565b60608161211a5750506040805180820190915260018152600360fc1b602082015290565b8160005b8115612144578061212e81612a1c565b915061213d9050600a83612954565b915061211e565b6000816001600160401b0381111561215e5761215e612aa3565b6040519080825280601f01601f191660200182016040528015612188576020820181803683370190505b5090505b84156115235761219d600183612987565b91506121aa600a86612a37565b6121b590603061293c565b60f81b8183815181106121ca576121ca612a8d565b60200101906001600160f81b031916908160001a9053506121ec600a86612954565b945061218c565b60006001600160e01b03198216637965db0b60e01b14806106b957506301ffc9a760e01b6001600160e01b03198316146106b9565b6000600161223584610de1565b61223f9190612987565b600083815260096020526040902054909150808214612292576001600160a01b03841660009081526008602090815260408083208584528252808320548484528184208190558352600990915290208190555b5060009182526009602090815260408084208490556001600160a01b039094168352600881528383209183525290812055565b600a546000906122d790600190612987565b6000838152600b6020526040812054600a80549394509092849081106122ff576122ff612a8d565b9060005260206000200154905080600a838154811061232057612320612a8d565b6000918252602080832090910192909255828152600b9091526040808220849055858252812055600a80548061235857612358612a77565b6001900381819060005260206000200160009055905550505050565b600061237f83610de1565b6001600160a01b039093166000908152600860209081526040808320868452825280832085905593825260099052919091209190915550565b8280546123c4906129e1565b90600052602060002090601f0160209004810192826123e6576000855561242c565b82601f106123ff57805160ff191683800117855561242c565b8280016001018555821561242c579182015b8281111561242c578251825591602001919060010190612411565b5061243892915061243c565b5090565b5b80821115612438576000815560010161243d565b60006001600160401b038084111561246b5761246b612aa3565b604051601f8501601f19908116603f0116810190828211818310171561249357612493612aa3565b816040528093508581528686860111156124ac57600080fd5b858560208301376000602087830101525050509392505050565b80356001600160a01b03811681146124dd57600080fd5b919050565b600082601f8301126124f357600080fd5b610e8083833560208501612451565b60006020828403121561251457600080fd5b610e80826124c6565b6000806040838503121561253057600080fd5b612539836124c6565b9150612547602084016124c6565b90509250929050565b60008060006060848603121561256557600080fd5b61256e846124c6565b925061257c602085016124c6565b9150604084013590509250925092565b600080600080608085870312156125a257600080fd5b6125ab856124c6565b93506125b9602086016124c6565b92506040850135915060608501356001600160401b038111156125db57600080fd5b8501601f810187136125ec57600080fd5b6125fb87823560208401612451565b91505092959194509250565b6000806040838503121561261a57600080fd5b612623836124c6565b91506020830135801515811461263857600080fd5b809150509250929050565b6000806040838503121561265657600080fd5b61265f836124c6565b946020939093013593505050565b60006020828403121561267f57600080fd5b5035919050565b6000806040838503121561269957600080fd5b82359150612547602084016124c6565b600080604083850312156126bc57600080fd5b50508035926020909101359150565b6000602082840312156126dd57600080fd5b8135610e8081612ab9565b6000602082840312156126fa57600080fd5b8151610e8081612ab9565b60006020828403121561271757600080fd5b81356001600160401b0381111561272d57600080fd5b611523848285016124e2565b6000806040838503121561274c57600080fd5b8235915060208301356001600160401b0381111561276957600080fd5b612775858286016124e2565b9150509250929050565b6000815180845261279781602086016020860161299e565b601f01601f19169290920160200192915050565b600083516127bd81846020880161299e565b8351908301906127d181836020880161299e565b01949350505050565b76020b1b1b2b9b9a1b7b73a3937b61d1030b1b1b7bab73a1604d1b81526000835161280c81601785016020880161299e565b7001034b99036b4b9b9b4b733903937b6329607d1b601791840191820152835161283d81602884016020880161299e565b01602801949350505050565b6001600160a01b038581168252841660208201526040810183905260806060820181905260009061287c9083018461277f565b9695505050505050565b602081526000610e80602083018461277f565b60208082526032908201527f4552433732313a207472616e7366657220746f206e6f6e20455243373231526560408201527131b2b4bb32b91034b6b83632b6b2b73a32b960711b606082015260800190565b60208082526031908201527f4552433732313a207472616e736665722063616c6c6572206973206e6f74206f6040820152701ddb995c881b9bdc88185c1c1c9bdd9959607a1b606082015260800190565b6000821982111561294f5761294f612a4b565b500190565b60008261296357612963612a61565b500490565b600081600019048311821515161561298257612982612a4b565b500290565b60008282101561299957612999612a4b565b500390565b60005b838110156129b95781810151838201526020016129a1565b838111156110df5750506000910152565b6000816129d9576129d9612a4b565b506000190190565b600181811c908216806129f557607f821691505b60208210811415612a1657634e487b7160e01b600052602260045260246000fd5b50919050565b6000600019821415612a3057612a30612a4b565b5060010190565b600082612a4657612a46612a61565b500690565b634e487b7160e01b600052601160045260246000fd5b634e487b7160e01b600052601260045260246000fd5b634e487b7160e01b600052603160045260246000fd5b634e487b7160e01b600052603260045260246000fd5b634e487b7160e01b600052604160045260246000fd5b6001600160e01b031981168114612acf57600080fd5b5056fe4c6f6f743a206d75737420686176652061646d696e20726f6c6520746f206368a2646970667358221220c16d53877c223b6e65372b8706ce9c5fc934d077707024299fa85cf4f05ce7fa64736f6c63430008070033",
  "immutableReferences": {},
  "source": "pragma solidity ^0.8.0;\n\nimport \"@openzeppelin/contracts/token/ERC721/ERC721.sol\";\nimport \"@openzeppelin/contracts/token/ERC721/extensions/ERC721Enumerable.sol\";\nimport \"@openzeppelin/contracts/token/ERC721/extensions/ERC721Burnable.sol\";\nimport \"@openzeppelin/contracts/token/ERC721/extensions/ERC721Pausable.sol\";\nimport \"@openzeppelin/contracts/token/ERC721/extensions/ERC721URIStorage.sol\";\nimport \"@openzeppelin/contracts/access/AccessControlEnumerable.sol\";\nimport \"@openzeppelin/contracts/utils/Context.sol\";\nimport \"@openzeppelin/contracts/utils/Counters.sol\";\n\n/**\n * @dev {ERC721} token, including:\n *\n *  - ability for holders to burn (destroy) their tokens\n *  - a minter role that allows for token minting (creation)\n *  - token ID and URI autogeneration\n *\n * This contract uses {AccessControl} to lock permissioned functions using the\n * different roles - head to its documentation for details.\n *\n * The account that deploys the contract will be granted the minter and pauser\n * roles, as well as the default admin role, which will let it grant both minter\n * and pauser roles to other accounts.\n */\ncontract Loot is Context,  AccessControlEnumerable, ERC721Enumerable, ERC721URIStorage{\n  using Counters for Counters.Counter;\n  Counters.Counter public _tokenIdTracker;\n\n  string private _baseTokenURI;\n  uint private _price;\n  uint private _max;\n  address private _admin;\n\n  uint256 public reflectionBalance;\n  uint256 public totalDividend;\n  mapping(uint256 => uint256) lastDividendAt;\n  mapping (uint256 => address ) public creator;\n\n  /**\n    * @dev Grants `DEFAULT_ADMIN_ROLE` to the\n    * account that deploys the contract.\n    *\n    * Token URIs will be autogenerated based on `baseURI` and their token IDs.\n    * See {ERC721-tokenURI}.\n    */\n  constructor(string memory name, string memory symbol, string memory baseTokenURI, uint mintPrice, uint max, address admin) ERC721(name, symbol) {\n      _baseTokenURI = baseTokenURI;\n      _price = mintPrice;\n      _max = max;\n      _admin = admin;\n\n      _setupRole(DEFAULT_ADMIN_ROLE, admin);\n  }\n\n  function _baseURI() internal view virtual override returns (string memory) {\n      return _baseTokenURI;\n  }\n\n  function setBaseURI(string memory baseURI) external {\n    require(hasRole(DEFAULT_ADMIN_ROLE, _msgSender()), \"Loot: must have admin role to change base URI\");\n    _baseTokenURI = baseURI;\n  }\n\n  function setTokenURI(uint256 tokenId, string memory _tokenURI) external {\n    require(hasRole(DEFAULT_ADMIN_ROLE, _msgSender()), \"Loot: must have admin role to change token URI\");\n    _setTokenURI(tokenId, _tokenURI);\n  }\n\n  function setPrice(uint mintPrice) external {\n    require(hasRole(DEFAULT_ADMIN_ROLE, _msgSender()), \"Loot: must have admin role to change price\");\n    _price = mintPrice;\n  }\n\n  function price() public view returns (uint) {\n    return _price;\n  }\n\n  function mint() public payable {\n    require(msg.value == _price, \"Loot: must send correct price\");\n    require(_tokenIdTracker.current() < _max, \"Loot: all Loot have been minted\");\n\n    _mint(msg.sender, _tokenIdTracker.current());\n    creator[_tokenIdTracker.current()] = msg.sender;\n    lastDividendAt[_tokenIdTracker.current()] = totalDividend;\n    _tokenIdTracker.increment();\n    splitBalance(msg.value);\n  }\n\n  function punkCreator(uint256 tokenId) public view returns(address){\n    return creator[tokenId];\n  }\n\n  function _burn(uint256 tokenId) internal virtual override(ERC721, ERC721URIStorage) {\n    return ERC721URIStorage._burn(tokenId);\n  }\n\n  function tokenURI(uint256 tokenId) public view override(ERC721, ERC721URIStorage) returns (string memory) {\n    return ERC721URIStorage.tokenURI(tokenId);\n  }\n\n  function _beforeTokenTransfer(address from, address to, uint256 tokenId) internal virtual override(ERC721, ERC721Enumerable) {\n    if (totalSupply() > tokenId) claimReward(tokenId);\n    super._beforeTokenTransfer(from, to, tokenId);\n  }\n\n  /**\n    * @dev See {IERC165-supportsInterface}.\n    */\n  function supportsInterface(bytes4 interfaceId) public view virtual override(AccessControlEnumerable, ERC721, ERC721Enumerable) returns (bool) {\n    return super.supportsInterface(interfaceId);\n  }\n\n  function currentRate() public view returns (uint256){\n      if(totalSupply() == 0) return 0;\n      return reflectionBalance/totalSupply();\n  }\n\n  function claimRewards() public {\n    uint count = balanceOf(msg.sender);\n    for(uint i=0; i < count; i++){\n        uint tokenId = tokenOfOwnerByIndex(msg.sender, i);\n        claimReward(tokenId);\n    }\n  }\n\n  function getReflectionBalances() public view returns(uint256) {\n    uint count = balanceOf(msg.sender);\n    uint256 total = 0;\n    for(uint i=0; i < count; i++){\n        uint tokenId = tokenOfOwnerByIndex(msg.sender, i);\n        total += getReflectionBalance(tokenId);\n    }\n    return total;\n  }\n\n  function claimReward(uint256 tokenId) public {\n    require(ownerOf(tokenId) == _msgSender(), \"Loot: Only owner can claim rewards\");\n    uint256 balance = getReflectionBalance(tokenId);\n    payable(ownerOf(tokenId)).transfer(balance);\n    lastDividendAt[tokenId] = totalDividend;\n  }\n\n  function getReflectionBalance(uint256 tokenId) public view returns (uint256){\n      return totalDividend - lastDividendAt[tokenId];\n  }\n\n  function splitBalance(uint256 amount) private {\n      uint256 reflectionShare = amount/32;\n      uint256 mintingShare  = amount - reflectionShare;\n      reflectDividend(reflectionShare);\n      payable(_admin).transfer(mintingShare);\n  }\n\n  function reflectDividend(uint256 amount) private {\n    reflectionBalance  = reflectionBalance + amount;\n    totalDividend = totalDividend + (amount/totalSupply());\n  }\n}\n",
  "sourcePath": "/Users/armenmerikyan/Desktop/LOOT/contracts/Loot.sol",
  "compiler": {
    "name": "solc",
    "version": "0.8.7+commit.e28d00a7.Emscripten.clang"
  },
  "schemaVersion": "3.4.3",
  "updatedAt": "2021-09-04T22:54:56.123Z",
  "networkType": "ethereum",
  "devdoc": {
    "details": "{ERC721} token, including:  - ability for holders to burn (destroy) their tokens  - a minter role that allows for token minting (creation)  - token ID and URI autogeneration This contract uses {AccessControl} to lock permissioned functions using the different roles - head to its documentation for details. The account that deploys the contract will be granted the minter and pauser roles, as well as the default admin role, which will let it grant both minter and pauser roles to other accounts.",
    "kind": "dev",
    "methods": {
      "approve(address,uint256)": {
        "details": "See {IERC721-approve}."
      },
      "balanceOf(address)": {
        "details": "See {IERC721-balanceOf}."
      },
      "constructor": {
        "details": "Grants `DEFAULT_ADMIN_ROLE` to the account that deploys the contract. Token URIs will be autogenerated based on `baseURI` and their token IDs. See {ERC721-tokenURI}."
      },
      "getApproved(uint256)": {
        "details": "See {IERC721-getApproved}."
      },
      "getRoleAdmin(bytes32)": {
        "details": "Returns the admin role that controls `role`. See {grantRole} and {revokeRole}. To change a role's admin, use {_setRoleAdmin}."
      },
      "getRoleMember(bytes32,uint256)": {
        "details": "Returns one of the accounts that have `role`. `index` must be a value between 0 and {getRoleMemberCount}, non-inclusive. Role bearers are not sorted in any particular way, and their ordering may change at any point. WARNING: When using {getRoleMember} and {getRoleMemberCount}, make sure you perform all queries on the same block. See the following https://forum.openzeppelin.com/t/iterating-over-elements-on-enumerableset-in-openzeppelin-contracts/2296[forum post] for more information."
      },
      "getRoleMemberCount(bytes32)": {
        "details": "Returns the number of accounts that have `role`. Can be used together with {getRoleMember} to enumerate all bearers of a role."
      },
      "grantRole(bytes32,address)": {
        "details": "Overload {grantRole} to track enumerable memberships"
      },
      "hasRole(bytes32,address)": {
        "details": "Returns `true` if `account` has been granted `role`."
      },
      "isApprovedForAll(address,address)": {
        "details": "See {IERC721-isApprovedForAll}."
      },
      "name()": {
        "details": "See {IERC721Metadata-name}."
      },
      "ownerOf(uint256)": {
        "details": "See {IERC721-ownerOf}."
      },
      "renounceRole(bytes32,address)": {
        "details": "Overload {renounceRole} to track enumerable memberships"
      },
      "revokeRole(bytes32,address)": {
        "details": "Overload {revokeRole} to track enumerable memberships"
      },
      "safeTransferFrom(address,address,uint256)": {
        "details": "See {IERC721-safeTransferFrom}."
      },
      "safeTransferFrom(address,address,uint256,bytes)": {
        "details": "See {IERC721-safeTransferFrom}."
      },
      "setApprovalForAll(address,bool)": {
        "details": "See {IERC721-setApprovalForAll}."
      },
      "supportsInterface(bytes4)": {
        "details": "See {IERC165-supportsInterface}."
      },
      "symbol()": {
        "details": "See {IERC721Metadata-symbol}."
      },
      "tokenByIndex(uint256)": {
        "details": "See {IERC721Enumerable-tokenByIndex}."
      },
      "tokenOfOwnerByIndex(address,uint256)": {
        "details": "See {IERC721Enumerable-tokenOfOwnerByIndex}."
      },
      "totalSupply()": {
        "details": "See {IERC721Enumerable-totalSupply}."
      },
      "transferFrom(address,address,uint256)": {
        "details": "See {IERC721-transferFrom}."
      }
    },
    "version": 1
  },
  "userdoc": {
    "kind": "user",
    "methods": {},
    "version": 1
  }
}